{
  "contractName": "CustFactory",
  "abi": [
    {
      "constant": true,
      "inputs": [
        {
          "name": "",
          "type": "address"
        }
      ],
      "name": "permissions",
      "outputs": [
        {
          "name": "",
          "type": "bool"
        }
      ],
      "payable": false,
      "stateMutability": "view",
      "type": "function"
    },
    {
      "constant": true,
      "inputs": [],
      "name": "usuarioActivo",
      "outputs": [
        {
          "name": "",
          "type": "address"
        }
      ],
      "payable": false,
      "stateMutability": "view",
      "type": "function"
    },
    {
      "constant": true,
      "inputs": [],
      "name": "incentives",
      "outputs": [
        {
          "name": "",
          "type": "address"
        }
      ],
      "payable": false,
      "stateMutability": "view",
      "type": "function"
    },
    {
      "constant": true,
      "inputs": [],
      "name": "checkBlackListed",
      "outputs": [
        {
          "name": "",
          "type": "address"
        }
      ],
      "payable": false,
      "stateMutability": "view",
      "type": "function"
    },
    {
      "constant": true,
      "inputs": [],
      "name": "merchantActivo",
      "outputs": [
        {
          "name": "",
          "type": "address"
        }
      ],
      "payable": false,
      "stateMutability": "view",
      "type": "function"
    },
    {
      "constant": true,
      "inputs": [],
      "name": "owner",
      "outputs": [
        {
          "name": "",
          "type": "address"
        }
      ],
      "payable": false,
      "stateMutability": "view",
      "type": "function"
    },
    {
      "constant": true,
      "inputs": [
        {
          "name": "",
          "type": "uint256"
        }
      ],
      "name": "idToOwner",
      "outputs": [
        {
          "name": "",
          "type": "address"
        }
      ],
      "payable": false,
      "stateMutability": "view",
      "type": "function"
    },
    {
      "constant": false,
      "inputs": [
        {
          "name": "newOwner",
          "type": "address"
        }
      ],
      "name": "transferOwnership",
      "outputs": [],
      "payable": false,
      "stateMutability": "nonpayable",
      "type": "function"
    },
    {
      "constant": true,
      "inputs": [
        {
          "name": "",
          "type": "address"
        }
      ],
      "name": "blacklist",
      "outputs": [
        {
          "name": "notifier",
          "type": "address"
        },
        {
          "name": "amount",
          "type": "uint256"
        }
      ],
      "payable": false,
      "stateMutability": "view",
      "type": "function"
    },
    {
      "anonymous": false,
      "inputs": [
        {
          "indexed": false,
          "name": "errMsg",
          "type": "string"
        },
        {
          "indexed": false,
          "name": "id",
          "type": "uint256"
        },
        {
          "indexed": false,
          "name": "client",
          "type": "address"
        }
      ],
      "name": "billCreationStatus",
      "type": "event"
    },
    {
      "anonymous": false,
      "inputs": [
        {
          "indexed": false,
          "name": "Msg",
          "type": "string"
        },
        {
          "indexed": false,
          "name": "user",
          "type": "address"
        },
        {
          "indexed": false,
          "name": "amount",
          "type": "uint256"
        },
        {
          "indexed": false,
          "name": "notifier",
          "type": "address"
        }
      ],
      "name": "blackListed",
      "type": "event"
    },
    {
      "anonymous": false,
      "inputs": [
        {
          "indexed": false,
          "name": "status",
          "type": "bool"
        },
        {
          "indexed": false,
          "name": "user",
          "type": "address"
        }
      ],
      "name": "eventUser",
      "type": "event"
    },
    {
      "anonymous": false,
      "inputs": [
        {
          "indexed": true,
          "name": "previousOwner",
          "type": "address"
        },
        {
          "indexed": true,
          "name": "newOwner",
          "type": "address"
        }
      ],
      "name": "OwnershipTransferred",
      "type": "event"
    },
    {
      "constant": false,
      "inputs": [
        {
          "name": "_id",
          "type": "uint256"
        },
        {
          "name": "_client",
          "type": "address"
        },
        {
          "name": "_amount",
          "type": "uint256"
        },
        {
          "name": "_timeExtra",
          "type": "uint256"
        },
        {
          "name": "_tokenAddress",
          "type": "address"
        }
      ],
      "name": "createPayContract",
      "outputs": [],
      "payable": false,
      "stateMutability": "nonpayable",
      "type": "function"
    },
    {
      "constant": false,
      "inputs": [
        {
          "name": "_address",
          "type": "address"
        }
      ],
      "name": "permissionAdd",
      "outputs": [],
      "payable": false,
      "stateMutability": "nonpayable",
      "type": "function"
    },
    {
      "constant": false,
      "inputs": [
        {
          "name": "_client",
          "type": "address"
        },
        {
          "name": "_id",
          "type": "uint256"
        }
      ],
      "name": "addToBlackList",
      "outputs": [],
      "payable": false,
      "stateMutability": "nonpayable",
      "type": "function"
    },
    {
      "constant": false,
      "inputs": [
        {
          "name": "_client",
          "type": "address"
        },
        {
          "name": "_id",
          "type": "uint256"
        }
      ],
      "name": "deleteFromBlackList",
      "outputs": [],
      "payable": false,
      "stateMutability": "nonpayable",
      "type": "function"
    },
    {
      "constant": false,
      "inputs": [
        {
          "name": "_address",
          "type": "address"
        }
      ],
      "name": "setIncentiveContract",
      "outputs": [],
      "payable": false,
      "stateMutability": "nonpayable",
      "type": "function"
    },
    {
      "constant": false,
      "inputs": [
        {
          "name": "_client",
          "type": "address"
        },
        {
          "name": "_merchant",
          "type": "address"
        }
      ],
      "name": "setClientMerchantContracts",
      "outputs": [],
      "payable": false,
      "stateMutability": "nonpayable",
      "type": "function"
    },
    {
      "constant": false,
      "inputs": [
        {
          "name": "_newDiscount",
          "type": "uint256"
        }
      ],
      "name": "changeDiscount",
      "outputs": [],
      "payable": false,
      "stateMutability": "nonpayable",
      "type": "function"
    },
    {
      "constant": false,
      "inputs": [],
      "name": "stopContract",
      "outputs": [],
      "payable": false,
      "stateMutability": "nonpayable",
      "type": "function"
    },
    {
      "constant": false,
      "inputs": [],
      "name": "resumeContract",
      "outputs": [],
      "payable": false,
      "stateMutability": "nonpayable",
      "type": "function"
    },
    {
      "constant": false,
      "inputs": [],
      "name": "bye_bye",
      "outputs": [],
      "payable": false,
      "stateMutability": "nonpayable",
      "type": "function"
    }
  ],
  "bytecode": "0x6080604052600560015560646002556000600360006101000a81548160ff021916908315150217905550336000806101000a81548173ffffffffffffffffffffffffffffffffffffffff021916908373ffffffffffffffffffffffffffffffffffffffff160217905550614d9a806100786000396000f300608060405260043610610107576000357c0100000000000000000000000000000000000000000000000000000000900463ffffffff16806301e882081461010c57806304119ede14610167578063068dc52c146101be57806307818200146101d55780630d5df7ba1461021857806312253a6c1461026f57806325afa87914610286578063542ef7ee146102b3578063638d6cbc146102f657806365bb2dd51461034d57806380bd5641146103ce5780638da5cb5b14610425578063bfc206ed1461047c578063c422a3bb146104e9578063c4bc5da514610536578063c601c10e1461054d578063e00335e6146105b0578063f2fde38b146105fd578063f9f92be414610640575b600080fd5b34801561011857600080fd5b5061014d600480360381019080803573ffffffffffffffffffffffffffffffffffffffff1690602001909291905050506106ca565b604051808215151515815260200191505060405180910390f35b34801561017357600080fd5b5061017c6106ea565b604051808273ffffffffffffffffffffffffffffffffffffffff1673ffffffffffffffffffffffffffffffffffffffff16815260200191505060405180910390f35b3480156101ca57600080fd5b506101d3610710565b005b3480156101e157600080fd5b50610216600480360381019080803573ffffffffffffffffffffffffffffffffffffffff169060200190929190505050610784565b005b34801561022457600080fd5b5061022d6107c8565b604051808273ffffffffffffffffffffffffffffffffffffffff1673ffffffffffffffffffffffffffffffffffffffff16815260200191505060405180910390f35b34801561027b57600080fd5b506102846107ee565b005b34801561029257600080fd5b506102b160048036038101908080359060200190929190505050610866565b005b3480156102bf57600080fd5b506102f4600480360381019080803573ffffffffffffffffffffffffffffffffffffffff1690602001909291905050506108cb565b005b34801561030257600080fd5b5061030b610ab8565b604051808273ffffffffffffffffffffffffffffffffffffffff1673ffffffffffffffffffffffffffffffffffffffff16815260200191505060405180910390f35b34801561035957600080fd5b506103cc60048036038101908080359060200190929190803573ffffffffffffffffffffffffffffffffffffffff1690602001909291908035906020019092919080359060200190929190803573ffffffffffffffffffffffffffffffffffffffff169060200190929190505050610ade565b005b3480156103da57600080fd5b506103e36119bd565b604051808273ffffffffffffffffffffffffffffffffffffffff1673ffffffffffffffffffffffffffffffffffffffff16815260200191505060405180910390f35b34801561043157600080fd5b5061043a6119e3565b604051808273ffffffffffffffffffffffffffffffffffffffff1673ffffffffffffffffffffffffffffffffffffffff16815260200191505060405180910390f35b34801561048857600080fd5b506104a760048036038101908080359060200190929190505050611a08565b604051808273ffffffffffffffffffffffffffffffffffffffff1673ffffffffffffffffffffffffffffffffffffffff16815260200191505060405180910390f35b3480156104f557600080fd5b50610534600480360381019080803573ffffffffffffffffffffffffffffffffffffffff16906020019092919080359060200190929190505050611a3b565b005b34801561054257600080fd5b5061054b611dc6565b005b34801561055957600080fd5b506105ae600480360381019080803573ffffffffffffffffffffffffffffffffffffffff169060200190929190803573ffffffffffffffffffffffffffffffffffffffff169060200190929190505050611e3e565b005b3480156105bc57600080fd5b506105fb600480360381019080803573ffffffffffffffffffffffffffffffffffffffff16906020019092919080359060200190929190505050611ec4565b005b34801561060957600080fd5b5061063e600480360381019080803573ffffffffffffffffffffffffffffffffffffffff1690602001909291905050506125eb565b005b34801561064c57600080fd5b50610681600480360381019080803573ffffffffffffffffffffffffffffffffffffffff169060200190929190505050612740565b604051808373ffffffffffffffffffffffffffffffffffffffff1673ffffffffffffffffffffffffffffffffffffffff1681526020018281526020019250505060405180910390f35b60086020528060005260406000206000915054906101000a900460ff1681565b600360019054906101000a900473ffffffffffffffffffffffffffffffffffffffff1681565b6000809054906101000a900473ffffffffffffffffffffffffffffffffffffffff1673ffffffffffffffffffffffffffffffffffffffff163373ffffffffffffffffffffffffffffffffffffffff1614151561076b57600080fd5b3373ffffffffffffffffffffffffffffffffffffffff16ff5b80600660006101000a81548173ffffffffffffffffffffffffffffffffffffffff021916908373ffffffffffffffffffffffffffffffffffffffff16021790555050565b600660009054906101000a900473ffffffffffffffffffffffffffffffffffffffff1681565b6000809054906101000a900473ffffffffffffffffffffffffffffffffffffffff1673ffffffffffffffffffffffffffffffffffffffff163373ffffffffffffffffffffffffffffffffffffffff1614151561084957600080fd5b6001600360006101000a81548160ff021916908315150217905550565b6000809054906101000a900473ffffffffffffffffffffffffffffffffffffffff1673ffffffffffffffffffffffffffffffffffffffff163373ffffffffffffffffffffffffffffffffffffffff161415156108c157600080fd5b8060018190555050565b600460009054906101000a900473ffffffffffffffffffffffffffffffffffffffff1673ffffffffffffffffffffffffffffffffffffffff16638ea79f27336040518263ffffffff167c0100000000000000000000000000000000000000000000000000000000028152600401808273ffffffffffffffffffffffffffffffffffffffff1673ffffffffffffffffffffffffffffffffffffffff168152602001915050602060405180830381600087803b15801561098857600080fd5b505af115801561099c573d6000803e3d6000fd5b505050506040513d60208110156109b257600080fd5b81019080805190602001909291905050501515610a5d576040517f08c379a000000000000000000000000000000000000000000000000000000000815260040180806020018281038252602f8152602001807f456c206d65726368616e74206e6f20657374c3a1206461646f20646520616c7481526020017f6120656e20656c2073697374656d61000000000000000000000000000000000081525060400191505060405180910390fd5b6001600860008373ffffffffffffffffffffffffffffffffffffffff1673ffffffffffffffffffffffffffffffffffffffff16815260200190815260200160002060006101000a81548160ff02191690831515021790555050565b600560009054906101000a900473ffffffffffffffffffffffffffffffffffffffff1681565b600360009054906101000a900460ff16151515610b63576040517f08c379a00000000000000000000000000000000000000000000000000000000081526004018080602001828103825260188152602001807f456c20636f6e747261746f20657374c3a12070617261646f000000000000000081525060200191505060405180910390fd5b837f49a10df8eb20cbd03fb91906ac854cdc291c07326f59d9417808a146d243a0d9600360019054906101000a900473ffffffffffffffffffffffffffffffffffffffff1673ffffffffffffffffffffffffffffffffffffffff16632d3491d5836040518263ffffffff167c0100000000000000000000000000000000000000000000000000000000028152600401808273ffffffffffffffffffffffffffffffffffffffff1673ffffffffffffffffffffffffffffffffffffffff168152602001915050602060405180830381600087803b158015610c4257600080fd5b505af1158015610c56573d6000803e3d6000fd5b505050506040513d6020811015610c6c57600080fd5b81019080805190602001909291905050508260405180831515151581526020018273ffffffffffffffffffffffffffffffffffffffff1673ffffffffffffffffffffffffffffffffffffffff1681526020019250505060405180910390a1600360019054906101000a900473ffffffffffffffffffffffffffffffffffffffff1673ffffffffffffffffffffffffffffffffffffffff16632d3491d5826040518263ffffffff167c0100000000000000000000000000000000000000000000000000000000028152600401808273ffffffffffffffffffffffffffffffffffffffff1673ffffffffffffffffffffffffffffffffffffffff168152602001915050602060405180830381600087803b158015610d8757600080fd5b505af1158015610d9b573d6000803e3d6000fd5b505050506040513d6020811015610db157600080fd5b81019080805190602001909291905050501515610e5c576040517f08c379a000000000000000000000000000000000000000000000000000000000815260040180806020018281038252602e8152602001807f456c207573756172696f206e6f20657374c3a1206461646f20646520616c746181526020017f20656e20656c2073697374656d6100000000000000000000000000000000000081525060400191505060405180910390fd5b600460009054906101000a900473ffffffffffffffffffffffffffffffffffffffff1673ffffffffffffffffffffffffffffffffffffffff16638ea79f27336040518263ffffffff167c0100000000000000000000000000000000000000000000000000000000028152600401808273ffffffffffffffffffffffffffffffffffffffff1673ffffffffffffffffffffffffffffffffffffffff168152602001915050602060405180830381600087803b158015610f1957600080fd5b505af1158015610f2d573d6000803e3d6000fd5b505050506040513d6020811015610f4357600080fd5b81019080805190602001909291905050501515610fee576040517f08c379a000000000000000000000000000000000000000000000000000000000815260040180806020018281038252602f8152602001807f456c206d65726368616e74206e6f20657374c3a1206461646f20646520616c7481526020017f6120656e20656c2073697374656d61000000000000000000000000000000000081525060400191505060405180910390fd5b60006007600088815260200190815260200160002060009054906101000a900473ffffffffffffffffffffffffffffffffffffffff1673ffffffffffffffffffffffffffffffffffffffff1614801561108957506000600960008773ffffffffffffffffffffffffffffffffffffffff1673ffffffffffffffffffffffffffffffffffffffff16815260200190815260200160002060010154145b8015611190575060011515600660009054906101000a900473ffffffffffffffffffffffffffffffffffffffff1673ffffffffffffffffffffffffffffffffffffffff166335b3a2f2876040518263ffffffff167c0100000000000000000000000000000000000000000000000000000000028152600401808273ffffffffffffffffffffffffffffffffffffffff1673ffffffffffffffffffffffffffffffffffffffff168152602001915050602060405180830381600087803b15801561115157600080fd5b505af1158015611165573d6000803e3d6000fd5b505050506040513d602081101561117b57600080fd5b81019080805190602001909291905050501515145b156114aa578433876111d36111c46002546111b66001548b61278490919063ffffffff16565b6127c290919063ffffffff16565b886127ec90919063ffffffff16565b42874201876111e061280d565b808873ffffffffffffffffffffffffffffffffffffffff1673ffffffffffffffffffffffffffffffffffffffff1681526020018773ffffffffffffffffffffffffffffffffffffffff1673ffffffffffffffffffffffffffffffffffffffff1681526020018681526020018581526020018481526020018381526020018273ffffffffffffffffffffffffffffffffffffffff1673ffffffffffffffffffffffffffffffffffffffff168152602001975050505050505050604051809103906000f0801580156112b4573d6000803e3d6000fd5b506007600088815260200190815260200160002060006101000a81548173ffffffffffffffffffffffffffffffffffffffff021916908373ffffffffffffffffffffffffffffffffffffffff160217905550600660009054906101000a900473ffffffffffffffffffffffffffffffffffffffff1673ffffffffffffffffffffffffffffffffffffffff1663d25f026d866040518263ffffffff167c0100000000000000000000000000000000000000000000000000000000028152600401808273ffffffffffffffffffffffffffffffffffffffff1673ffffffffffffffffffffffffffffffffffffffff168152602001915050600060405180830381600087803b1580156113c357600080fd5b505af11580156113d7573d6000803e3d6000fd5b505050507f0bbc1b543cc17cbd9f627720781d3be6752d07134be913b689c6297d7370824c868660405180806020018481526020018373ffffffffffffffffffffffffffffffffffffffff1673ffffffffffffffffffffffffffffffffffffffff168152602001828103825260398152602001807f456c20726571756572696d69656e746f20646520636f62726f2073652068612081526020017f63726561646f207361746973666163746f7269616d656e746500000000000000815250604001935050505060405180910390a16119b5565b60006007600088815260200190815260200160002060009054906101000a900473ffffffffffffffffffffffffffffffffffffffff1673ffffffffffffffffffffffffffffffffffffffff1614801561154557506000600960008773ffffffffffffffffffffffffffffffffffffffff1673ffffffffffffffffffffffffffffffffffffffff16815260200190815260200160002060010154145b801561164c575060001515600660009054906101000a900473ffffffffffffffffffffffffffffffffffffffff1673ffffffffffffffffffffffffffffffffffffffff166335b3a2f2876040518263ffffffff167c0100000000000000000000000000000000000000000000000000000000028152600401808273ffffffffffffffffffffffffffffffffffffffff1673ffffffffffffffffffffffffffffffffffffffff168152602001915050602060405180830381600087803b15801561160d57600080fd5b505af1158015611621573d6000803e3d6000fd5b505050506040513d602081101561163757600080fd5b81019080805190602001909291905050501515145b1561192c5784338786428742018761166261280d565b808873ffffffffffffffffffffffffffffffffffffffff1673ffffffffffffffffffffffffffffffffffffffff1681526020018773ffffffffffffffffffffffffffffffffffffffff1673ffffffffffffffffffffffffffffffffffffffff1681526020018681526020018581526020018481526020018381526020018273ffffffffffffffffffffffffffffffffffffffff1673ffffffffffffffffffffffffffffffffffffffff168152602001975050505050505050604051809103906000f080158015611736573d6000803e3d6000fd5b506007600088815260200190815260200160002060006101000a81548173ffffffffffffffffffffffffffffffffffffffff021916908373ffffffffffffffffffffffffffffffffffffffff160217905550600660009054906101000a900473ffffffffffffffffffffffffffffffffffffffff1673ffffffffffffffffffffffffffffffffffffffff1663ad7b985e866040518263ffffffff167c0100000000000000000000000000000000000000000000000000000000028152600401808273ffffffffffffffffffffffffffffffffffffffff1673ffffffffffffffffffffffffffffffffffffffff168152602001915050600060405180830381600087803b15801561184557600080fd5b505af1158015611859573d6000803e3d6000fd5b505050507f0bbc1b543cc17cbd9f627720781d3be6752d07134be913b689c6297d7370824c868660405180806020018481526020018373ffffffffffffffffffffffffffffffffffffffff1673ffffffffffffffffffffffffffffffffffffffff168152602001828103825260398152602001807f456c20726571756572696d69656e746f20646520636f62726f2073652068612081526020017f63726561646f207361746973666163746f7269616d656e746500000000000000815250604001935050505060405180910390a16119b4565b7f0bbc1b543cc17cbd9f627720781d3be6752d07134be913b689c6297d7370824c868660405180806020018481526020018373ffffffffffffffffffffffffffffffffffffffff1673ffffffffffffffffffffffffffffffffffffffff16815260200182810382526081815260200180614cee6081913960a001935050505060405180910390a15b5b505050505050565b600460009054906101000a900473ffffffffffffffffffffffffffffffffffffffff1681565b6000809054906101000a900473ffffffffffffffffffffffffffffffffffffffff1681565b60076020528060005260406000206000915054906101000a900473ffffffffffffffffffffffffffffffffffffffff1681565b600860003373ffffffffffffffffffffffffffffffffffffffff1673ffffffffffffffffffffffffffffffffffffffff16815260200190815260200160002060009054906101000a900460ff161515611b22576040517f08c379a00000000000000000000000000000000000000000000000000000000081526004018080602001828103825260348152602001807f5573746564206e6f20657374c3a120686162696c697461646f2070617261207281526020017f65616c697a617220657374612061636369c3b36e00000000000000000000000081525060400191505060405180910390fd5b6007600082815260200190815260200160002060009054906101000a900473ffffffffffffffffffffffffffffffffffffffff16600560006101000a81548173ffffffffffffffffffffffffffffffffffffffff021916908373ffffffffffffffffffffffffffffffffffffffff1602179055506000600560009054906101000a900473ffffffffffffffffffffffffffffffffffffffff1673ffffffffffffffffffffffffffffffffffffffff1663ce21f4b1846040518263ffffffff167c0100000000000000000000000000000000000000000000000000000000028152600401808273ffffffffffffffffffffffffffffffffffffffff1673ffffffffffffffffffffffffffffffffffffffff168152602001915050602060405180830381600087803b158015611c5557600080fd5b505af1158015611c69573d6000803e3d6000fd5b505050506040513d6020811015611c7f57600080fd5b8101908080519060200190929190505050141515611d51576040517f08c379a00000000000000000000000000000000000000000000000000000000081526004018080602001828103825260498152602001807f456c20636c69656e7465206e6f206861207361746973666563686f207375732081526020017f6465756461732c204e6f20707565646520626f727261727365206465206c612081526020017f626c61636b6c697374000000000000000000000000000000000000000000000081525060600191505060405180910390fd5b600960008373ffffffffffffffffffffffffffffffffffffffff1673ffffffffffffffffffffffffffffffffffffffff168152602001908152602001600020600080820160006101000a81549073ffffffffffffffffffffffffffffffffffffffff0219169055600182016000905550505050565b6000809054906101000a900473ffffffffffffffffffffffffffffffffffffffff1673ffffffffffffffffffffffffffffffffffffffff163373ffffffffffffffffffffffffffffffffffffffff16141515611e2157600080fd5b6000600360006101000a81548160ff021916908315150217905550565b81600360016101000a81548173ffffffffffffffffffffffffffffffffffffffff021916908373ffffffffffffffffffffffffffffffffffffffff16021790555080600460006101000a81548173ffffffffffffffffffffffffffffffffffffffff021916908373ffffffffffffffffffffffffffffffffffffffff1602179055505050565b600860003373ffffffffffffffffffffffffffffffffffffffff1673ffffffffffffffffffffffffffffffffffffffff16815260200190815260200160002060009054906101000a900460ff161515611fab576040517f08c379a00000000000000000000000000000000000000000000000000000000081526004018080602001828103825260348152602001807f5573746564206e6f20657374c3a120686162696c697461646f2070617261207281526020017f65616c697a617220657374612061636369c3b36e00000000000000000000000081525060400191505060405180910390fd5b6007600082815260200190815260200160002060009054906101000a900473ffffffffffffffffffffffffffffffffffffffff16600560006101000a81548173ffffffffffffffffffffffffffffffffffffffff021916908373ffffffffffffffffffffffffffffffffffffffff160217905550600560009054906101000a900473ffffffffffffffffffffffffffffffffffffffff1673ffffffffffffffffffffffffffffffffffffffff166341374b6a836040518263ffffffff167c0100000000000000000000000000000000000000000000000000000000028152600401808273ffffffffffffffffffffffffffffffffffffffff1673ffffffffffffffffffffffffffffffffffffffff168152602001915050602060405180830381600087803b1580156120dc57600080fd5b505af11580156120f0573d6000803e3d6000fd5b505050506040513d602081101561210657600080fd5b810190808051906020019092919050505015156121d7576040517f08c379a00000000000000000000000000000000000000000000000000000000081526004018080602001828103825260518152602001807f546f646176c3ad61206e6f2068612070617361646f20656c207469656d706f2081526020017f6e656365736172696f207061726120696e636c75697220616c20636c69656e7481526020017f6520656e206c6120626c61636b6c69737400000000000000000000000000000081525060600191505060405180910390fd5b33600960008473ffffffffffffffffffffffffffffffffffffffff1673ffffffffffffffffffffffffffffffffffffffff16815260200190815260200160002060000160006101000a81548173ffffffffffffffffffffffffffffffffffffffff021916908373ffffffffffffffffffffffffffffffffffffffff160217905550600560009054906101000a900473ffffffffffffffffffffffffffffffffffffffff1673ffffffffffffffffffffffffffffffffffffffff1663ce21f4b1836040518263ffffffff167c0100000000000000000000000000000000000000000000000000000000028152600401808273ffffffffffffffffffffffffffffffffffffffff1673ffffffffffffffffffffffffffffffffffffffff168152602001915050602060405180830381600087803b15801561231557600080fd5b505af1158015612329573d6000803e3d6000fd5b505050506040513d602081101561233f57600080fd5b8101908080519060200190929190505050600960008473ffffffffffffffffffffffffffffffffffffffff1673ffffffffffffffffffffffffffffffffffffffff16815260200190815260200160002060010181905550600660009054906101000a900473ffffffffffffffffffffffffffffffffffffffff1673ffffffffffffffffffffffffffffffffffffffff1663d25f026d836040518263ffffffff167c0100000000000000000000000000000000000000000000000000000000028152600401808273ffffffffffffffffffffffffffffffffffffffff1673ffffffffffffffffffffffffffffffffffffffff168152602001915050600060405180830381600087803b15801561245357600080fd5b505af1158015612467573d6000803e3d6000fd5b505050507f85c0d7e7078d80a041196df945e4e13e7b696b2ceda64fc18c3532884935b5a982600960008573ffffffffffffffffffffffffffffffffffffffff1673ffffffffffffffffffffffffffffffffffffffff16815260200190815260200160002060010154600960008673ffffffffffffffffffffffffffffffffffffffff1673ffffffffffffffffffffffffffffffffffffffff16815260200190815260200160002060000160009054906101000a900473ffffffffffffffffffffffffffffffffffffffff1660405180806020018573ffffffffffffffffffffffffffffffffffffffff1673ffffffffffffffffffffffffffffffffffffffff1681526020018481526020018373ffffffffffffffffffffffffffffffffffffffff1673ffffffffffffffffffffffffffffffffffffffff1681526020018281038252601f8152602001807f5573756172696f2061c3b1616469646f2061206c6120626c61636b6c6973740081525060200194505050505060405180910390a15050565b6000809054906101000a900473ffffffffffffffffffffffffffffffffffffffff1673ffffffffffffffffffffffffffffffffffffffff163373ffffffffffffffffffffffffffffffffffffffff1614151561264657600080fd5b600073ffffffffffffffffffffffffffffffffffffffff168173ffffffffffffffffffffffffffffffffffffffff161415151561268257600080fd5b8073ffffffffffffffffffffffffffffffffffffffff166000809054906101000a900473ffffffffffffffffffffffffffffffffffffffff1673ffffffffffffffffffffffffffffffffffffffff167f8be0079c531659141344cd1fd0a4f28419497f9722a3daafe3b4186f6b6457e060405160405180910390a3806000806101000a81548173ffffffffffffffffffffffffffffffffffffffff021916908373ffffffffffffffffffffffffffffffffffffffff16021790555050565b60096020528060005260406000206000915090508060000160009054906101000a900473ffffffffffffffffffffffffffffffffffffffff16908060010154905082565b600080600084141561279957600091506127bb565b82840290508284828115156127aa57fe5b041415156127b757600080fd5b8091505b5092915050565b6000806000831115156127d457600080fd5b82848115156127df57fe5b0490508091505092915050565b6000808383111515156127fe57600080fd5b82840390508091505092915050565b6040516124d08061281e83390190560060806040526001600060146101000a81548161ffff021916908361ffff1602179055506001600460006101000a81548160ff0219169083151502179055506001600460016101000a81548160ff0219169083151502179055506001600460026101000a81548160ff0219169083151502179055506001600460036101000a81548160ff02191690831515021790555060016004806101000a81548160ff0219169083151502179055506001600460056101000a81548160ff0219169083151502179055506000600460066101000a81548160ff0219169083151502179055503480156100ea57600080fd5b5060405160e0806124d083398101806040528101908080519060200190929190805190602001909291908051906020019092919080519060200190929190805190602001909291908051906020019092919080519060200190929190505050336000806101000a81548173ffffffffffffffffffffffffffffffffffffffff021916908373ffffffffffffffffffffffffffffffffffffffff160217905550856000806101000a81548173ffffffffffffffffffffffffffffffffffffffff021916908373ffffffffffffffffffffffffffffffffffffffff16021790555084600760008973ffffffffffffffffffffffffffffffffffffffff1673ffffffffffffffffffffffffffffffffffffffff1681526020019081526020016000206000018190555083600760008973ffffffffffffffffffffffffffffffffffffffff1673ffffffffffffffffffffffffffffffffffffffff168152602001908152602001600020600101819055508360018190555085600760008973ffffffffffffffffffffffffffffffffffffffff1673ffffffffffffffffffffffffffffffffffffffff16815260200190815260200160002060020160006101000a81548173ffffffffffffffffffffffffffffffffffffffff021916908373ffffffffffffffffffffffffffffffffffffffff16021790555082600760008973ffffffffffffffffffffffffffffffffffffffff1673ffffffffffffffffffffffffffffffffffffffff1681526020019081526020016000206003018190555081600760008973ffffffffffffffffffffffffffffffffffffffff1673ffffffffffffffffffffffffffffffffffffffff168152602001908152602001600020600401819055506000600760008973ffffffffffffffffffffffffffffffffffffffff1673ffffffffffffffffffffffffffffffffffffffff16815260200190815260200160002060050160006101000a81548160ff0219169083151502179055506000600760008973ffffffffffffffffffffffffffffffffffffffff1673ffffffffffffffffffffffffffffffffffffffff16815260200190815260200160002060050160016101000a81548160ff0219169083151502179055507f765514dc121e21315b80eaec42a621f3ceb2e9c79ef4c58843eac0afca9ba340858589604051808481526020018381526020018273ffffffffffffffffffffffffffffffffffffffff1673ffffffffffffffffffffffffffffffffffffffff168152602001935050505060405180910390a180600460076101000a81548173ffffffffffffffffffffffffffffffffffffffff021916908373ffffffffffffffffffffffffffffffffffffffff1602179055506001600860008373ffffffffffffffffffffffffffffffffffffffff1673ffffffffffffffffffffffffffffffffffffffff16815260200190815260200160002060006101000a81548160ff02191690831515021790555050505050505050611f8b806105456000396000f3006080604052600436106100d0576000357c0100000000000000000000000000000000000000000000000000000000900463ffffffff168063050a8c2e146100d5578063068dc52c146101295780630d5df7ba1461014057806312253a6c1461019757806328bdcde8146101ae5780633c481cfe1461024d57806341374b6a1461029057806353877e49146102eb57806387d8ae93146103425780638da5cb5b146103c5578063bdf1d4691461041c578063c4bc5da5146104d1578063ce21f4b1146104e8578063f2fde38b1461053f575b600080fd5b610113600480360381019080803573ffffffffffffffffffffffffffffffffffffffff16906020019092919080359060200190929190505050610582565b6040518082815260200191505060405180910390f35b34801561013557600080fd5b5061013e611822565b005b34801561014c57600080fd5b50610155611896565b604051808273ffffffffffffffffffffffffffffffffffffffff1673ffffffffffffffffffffffffffffffffffffffff16815260200191505060405180910390f35b3480156101a357600080fd5b506101ac6118bc565b005b3480156101ba57600080fd5b506101d960048036038101908080359060200190929190505050611934565b604051808881526020018781526020018673ffffffffffffffffffffffffffffffffffffffff1673ffffffffffffffffffffffffffffffffffffffff168152602001858152602001848152602001831515151581526020018215151515815260200197505050505050505060405180910390f35b34801561025957600080fd5b5061028e600480360381019080803573ffffffffffffffffffffffffffffffffffffffff1690602001909291905050506119bf565b005b34801561029c57600080fd5b506102d1600480360381019080803573ffffffffffffffffffffffffffffffffffffffff169060200190929190505050611b10565b604051808215151515815260200191505060405180910390f35b3480156102f757600080fd5b50610300611b69565b604051808273ffffffffffffffffffffffffffffffffffffffff1673ffffffffffffffffffffffffffffffffffffffff16815260200191505060405180910390f35b34801561034e57600080fd5b50610383600480360381019080803573ffffffffffffffffffffffffffffffffffffffff169060200190929190505050611b8f565b604051808273ffffffffffffffffffffffffffffffffffffffff1673ffffffffffffffffffffffffffffffffffffffff16815260200191505060405180910390f35b3480156103d157600080fd5b506103da611bfb565b604051808273ffffffffffffffffffffffffffffffffffffffff1673ffffffffffffffffffffffffffffffffffffffff16815260200191505060405180910390f35b34801561042857600080fd5b5061045d600480360381019080803573ffffffffffffffffffffffffffffffffffffffff169060200190929190505050611c20565b604051808881526020018781526020018673ffffffffffffffffffffffffffffffffffffffff1673ffffffffffffffffffffffffffffffffffffffff168152602001858152602001848152602001831515151581526020018215151515815260200197505050505050505060405180910390f35b3480156104dd57600080fd5b506104e6611c9c565b005b3480156104f457600080fd5b50610529600480360381019080803573ffffffffffffffffffffffffffffffffffffffff169060200190929190505050611d14565b6040518082815260200191505060405180910390f35b34801561054b57600080fd5b50610580600480360381019080803573ffffffffffffffffffffffffffffffffffffffff169060200190929190505050611d60565b005b6000600460069054906101000a900460ff16151515610609576040517f08c379a00000000000000000000000000000000000000000000000000000000081526004018080602001828103825260188152602001807f456c20636f6e747261746f20657374c3a12070617261646f000000000000000081525060200191505060405180910390fd5b82600760008273ffffffffffffffffffffffffffffffffffffffff1673ffffffffffffffffffffffffffffffffffffffff1681526020019081526020016000206004015442101515610fdc576001600760008373ffffffffffffffffffffffffffffffffffffffff1673ffffffffffffffffffffffffffffffffffffffff16815260200190815260200160002060050160006101000a81548160ff021916908315150217905550603c600760008373ffffffffffffffffffffffffffffffffffffffff1673ffffffffffffffffffffffffffffffffffffffff168152602001908152602001600020600401540142101561081b57600460009054906101000a900460ff1615156107cd576040517f08c379a000000000000000000000000000000000000000000000000000000000815260040180806020018281038252604d8152602001807f55737465642079612068612065666563747561646f20656c20696e74656e746f81526020017f206465207061676f2079206e6f2068612061626f6e61646f206c612063616e7481526020017f696461642061646575646164610000000000000000000000000000000000000081525060600191505060405180910390fd5b6107f560646107e760018054611eb590919063ffffffff16565b611ef390919063ffffffff16565b6003819055506000600460006101000a81548160ff021916908315150217905550610fd7565b603c600760008373ffffffffffffffffffffffffffffffffffffffff1673ffffffffffffffffffffffffffffffffffffffff168152602001908152602001600020600401540142101515610fd65761012c600760008373ffffffffffffffffffffffffffffffffffffffff1673ffffffffffffffffffffffffffffffffffffffff16815260200190815260200160002060040154014210156109d657600460019054906101000a900460ff161515610987576040517f08c379a000000000000000000000000000000000000000000000000000000000815260040180806020018281038252604d8152602001807f55737465642079612068612065666563747561646f20656c20696e74656e746f81526020017f206465207061676f2079206e6f2068612061626f6e61646f206c612063616e7481526020017f696461642061646575646164610000000000000000000000000000000000000081525060600191505060405180910390fd5b6109b060646109a26002600154611eb590919063ffffffff16565b611ef390919063ffffffff16565b6003819055506000600460016101000a81548160ff021916908315150217905550610fd5565b61012c600760008373ffffffffffffffffffffffffffffffffffffffff1673ffffffffffffffffffffffffffffffffffffffff168152602001908152602001600020600401540142101515610fd4576101a4600760008373ffffffffffffffffffffffffffffffffffffffff1673ffffffffffffffffffffffffffffffffffffffff1681526020019081526020016000206004015401421015610b9257600460029054906101000a900460ff161515610b43576040517f08c379a000000000000000000000000000000000000000000000000000000000815260040180806020018281038252604d8152602001807f55737465642079612068612065666563747561646f20656c20696e74656e746f81526020017f206465207061676f2079206e6f2068612061626f6e61646f206c612063616e7481526020017f696461642061646575646164610000000000000000000000000000000000000081525060600191505060405180910390fd5b610b6c6064610b5e6005600154611eb590919063ffffffff16565b611ef390919063ffffffff16565b6003819055506000600460026101000a81548160ff021916908315150217905550610fd3565b6101a4600760008373ffffffffffffffffffffffffffffffffffffffff1673ffffffffffffffffffffffffffffffffffffffff168152602001908152602001600020600401540142101515610fd2576101e0600760008373ffffffffffffffffffffffffffffffffffffffff1673ffffffffffffffffffffffffffffffffffffffff1681526020019081526020016000206004015401421015610d4e57600460039054906101000a900460ff161515610cff576040517f08c379a000000000000000000000000000000000000000000000000000000000815260040180806020018281038252604d8152602001807f55737465642079612068612065666563747561646f20656c20696e74656e746f81526020017f206465207061676f2079206e6f2068612061626f6e61646f206c612063616e7481526020017f696461642061646575646164610000000000000000000000000000000000000081525060600191505060405180910390fd5b610d286064610d1a600c600154611eb590919063ffffffff16565b611ef390919063ffffffff16565b6003819055506000600460036101000a81548160ff021916908315150217905550610fd1565b6101e0600760008373ffffffffffffffffffffffffffffffffffffffff1673ffffffffffffffffffffffffffffffffffffffff168152602001908152602001600020600401540142101515610fd057610258600760008373ffffffffffffffffffffffffffffffffffffffff1673ffffffffffffffffffffffffffffffffffffffff1681526020019081526020016000206004015401421015610f08576004809054906101000a900460ff161515610eba576040517f08c379a000000000000000000000000000000000000000000000000000000000815260040180806020018281038252604d8152602001807f55737465642079612068612065666563747561646f20656c20696e74656e746f81526020017f206465207061676f2079206e6f2068612061626f6e61646f206c612063616e7481526020017f696461642061646575646164610000000000000000000000000000000000000081525060600191505060405180910390fd5b610ee36064610ed56014600154611eb590919063ffffffff16565b611ef390919063ffffffff16565b60038190555060006004806101000a81548160ff021916908315150217905550610fcf565b610258600760008373ffffffffffffffffffffffffffffffffffffffff1673ffffffffffffffffffffffffffffffffffffffff168152602001908152602001600020600401540142101515610fce57600460059054906101000a900460ff161515610f7257600080fd5b6001600760008373ffffffffffffffffffffffffffffffffffffffff1673ffffffffffffffffffffffffffffffffffffffff16815260200190815260200160002060050160016101000a81548160ff0219169083151502179055505b5b5b5b5b5b5b5b5b5b610fe5565b60006003819055505b838380600460079054906101000a900473ffffffffffffffffffffffffffffffffffffffff1673ffffffffffffffffffffffffffffffffffffffff166370a08231846040518263ffffffff167c0100000000000000000000000000000000000000000000000000000000028152600401808273ffffffffffffffffffffffffffffffffffffffff1673ffffffffffffffffffffffffffffffffffffffff168152602001915050602060405180830381600087803b1580156110a557600080fd5b505af11580156110b9573d6000803e3d6000fd5b505050506040513d60208110156110cf57600080fd5b81019080805190602001909291905050501015151561117c576040517f08c379a00000000000000000000000000000000000000000000000000000000081526004018080602001828103825260318152602001807f456c2062616c616e6365206e6f20657320737566696369656e7465207061726181526020017f20656665637475617220656c207061676f00000000000000000000000000000081525060400191505060405180910390fd5b600460079054906101000a900473ffffffffffffffffffffffffffffffffffffffff1673ffffffffffffffffffffffffffffffffffffffff1663a9059cbb600760008573ffffffffffffffffffffffffffffffffffffffff1673ffffffffffffffffffffffffffffffffffffffff16815260200190815260200160002060020160009054906101000a900473ffffffffffffffffffffffffffffffffffffffff16836040518363ffffffff167c0100000000000000000000000000000000000000000000000000000000028152600401808373ffffffffffffffffffffffffffffffffffffffff1673ffffffffffffffffffffffffffffffffffffffff16815260200182815260200192505050602060405180830381600087803b1580156112a357600080fd5b505af11580156112b7573d6000803e3d6000fd5b505050506040513d60208110156112cd57600080fd5b81019080805190602001909291905050505061133481600760008573ffffffffffffffffffffffffffffffffffffffff1673ffffffffffffffffffffffffffffffffffffffff16815260200190815260200160002060010154611f1d90919063ffffffff16565b600760008473ffffffffffffffffffffffffffffffffffffffff1673ffffffffffffffffffffffffffffffffffffffff168152602001908152602001600020600101819055507fbebbba5609d672876449a06928a35532ec133be9b4c05aea4b9563a2fe8ace5f600760008473ffffffffffffffffffffffffffffffffffffffff1673ffffffffffffffffffffffffffffffffffffffff168152602001908152602001600020600101546040518082815260200191505060405180910390a161144a600354600760008973ffffffffffffffffffffffffffffffffffffffff1673ffffffffffffffffffffffffffffffffffffffff16815260200190815260200160002060010154611f3e90919063ffffffff16565b600760008873ffffffffffffffffffffffffffffffffffffffff1673ffffffffffffffffffffffffffffffffffffffff1681526020019081526020016000206001018190555060006003819055507fbebbba5609d672876449a06928a35532ec133be9b4c05aea4b9563a2fe8ace5f600760008873ffffffffffffffffffffffffffffffffffffffff1673ffffffffffffffffffffffffffffffffffffffff168152602001908152602001600020600101546040518082815260200191505060405180910390a1600760003373ffffffffffffffffffffffffffffffffffffffff1673ffffffffffffffffffffffffffffffffffffffff16815260200190815260200160002060020160009054906101000a900473ffffffffffffffffffffffffffffffffffffffff1673ffffffffffffffffffffffffffffffffffffffff166108fc349081150290604051600060405180830381858888f193505050501580156115b9573d6000803e3d6000fd5b5034600281905550611618600254600760008973ffffffffffffffffffffffffffffffffffffffff1673ffffffffffffffffffffffffffffffffffffffff16815260200190815260200160002060010154611f1d90919063ffffffff16565b600760008873ffffffffffffffffffffffffffffffffffffffff1673ffffffffffffffffffffffffffffffffffffffff168152602001908152602001600020600101819055506000600760008873ffffffffffffffffffffffffffffffffffffffff1673ffffffffffffffffffffffffffffffffffffffff16815260200190815260200160002060010154141561175b57600760003373ffffffffffffffffffffffffffffffffffffffff1673ffffffffffffffffffffffffffffffffffffffff16815260200190815260200160002060008082016000905560018201600090556002820160006101000a81549073ffffffffffffffffffffffffffffffffffffffff0219169055600382016000905560048201600090556005820160006101000a81549060ff02191690556005820160016101000a81549060ff021916905550505b7fbebbba5609d672876449a06928a35532ec133be9b4c05aea4b9563a2fe8ace5f600760008873ffffffffffffffffffffffffffffffffffffffff1673ffffffffffffffffffffffffffffffffffffffff168152602001908152602001600020600101546040518082815260200191505060405180910390a1600760008773ffffffffffffffffffffffffffffffffffffffff1673ffffffffffffffffffffffffffffffffffffffff16815260200190815260200160002060010154935050505092915050565b6000809054906101000a900473ffffffffffffffffffffffffffffffffffffffff1673ffffffffffffffffffffffffffffffffffffffff163373ffffffffffffffffffffffffffffffffffffffff1614151561187d57600080fd5b3373ffffffffffffffffffffffffffffffffffffffff16ff5b600560009054906101000a900473ffffffffffffffffffffffffffffffffffffffff1681565b6000809054906101000a900473ffffffffffffffffffffffffffffffffffffffff1673ffffffffffffffffffffffffffffffffffffffff163373ffffffffffffffffffffffffffffffffffffffff1614151561191757600080fd5b6001600460066101000a81548160ff021916908315150217905550565b60068181548110151561194357fe5b90600052602060002090600602016000915090508060000154908060010154908060020160009054906101000a900473ffffffffffffffffffffffffffffffffffffffff16908060030154908060040154908060050160009054906101000a900460ff16908060050160019054906101000a900460ff16905087565b600860008273ffffffffffffffffffffffffffffffffffffffff1673ffffffffffffffffffffffffffffffffffffffff16815260200190815260200160002060009054906101000a900460ff161515611acc576040517f08c379a00000000000000000000000000000000000000000000000000000000081526004018080602001828103825260488152602001807f4c612064697265636369c3b36e2071756520686120696e74726f64756369646f81526020017f206e6f20657374c3a120686162696c697461646120706172612065666563747581526020017f6172207061676f7300000000000000000000000000000000000000000000000081525060600191505060405180910390fd5b80600460076101000a81548173ffffffffffffffffffffffffffffffffffffffff021916908373ffffffffffffffffffffffffffffffffffffffff16021790555050565b6000600760008373ffffffffffffffffffffffffffffffffffffffff1673ffffffffffffffffffffffffffffffffffffffff16815260200190815260200160002060050160019054906101000a900460ff169050919050565b600460079054906101000a900473ffffffffffffffffffffffffffffffffffffffff1681565b6000600760008373ffffffffffffffffffffffffffffffffffffffff1673ffffffffffffffffffffffffffffffffffffffff16815260200190815260200160002060020160009054906101000a900473ffffffffffffffffffffffffffffffffffffffff169050919050565b6000809054906101000a900473ffffffffffffffffffffffffffffffffffffffff1681565b60076020528060005260406000206000915090508060000154908060010154908060020160009054906101000a900473ffffffffffffffffffffffffffffffffffffffff16908060030154908060040154908060050160009054906101000a900460ff16908060050160019054906101000a900460ff16905087565b6000809054906101000a900473ffffffffffffffffffffffffffffffffffffffff1673ffffffffffffffffffffffffffffffffffffffff163373ffffffffffffffffffffffffffffffffffffffff16141515611cf757600080fd5b6000600460066101000a81548160ff021916908315150217905550565b6000600760008373ffffffffffffffffffffffffffffffffffffffff1673ffffffffffffffffffffffffffffffffffffffff168152602001908152602001600020600101549050919050565b6000809054906101000a900473ffffffffffffffffffffffffffffffffffffffff1673ffffffffffffffffffffffffffffffffffffffff163373ffffffffffffffffffffffffffffffffffffffff16141515611dbb57600080fd5b600073ffffffffffffffffffffffffffffffffffffffff168173ffffffffffffffffffffffffffffffffffffffff1614151515611df757600080fd5b8073ffffffffffffffffffffffffffffffffffffffff166000809054906101000a900473ffffffffffffffffffffffffffffffffffffffff1673ffffffffffffffffffffffffffffffffffffffff167f8be0079c531659141344cd1fd0a4f28419497f9722a3daafe3b4186f6b6457e060405160405180910390a3806000806101000a81548173ffffffffffffffffffffffffffffffffffffffff021916908373ffffffffffffffffffffffffffffffffffffffff16021790555050565b6000806000841415611eca5760009150611eec565b8284029050828482811515611edb57fe5b04141515611ee857600080fd5b8091505b5092915050565b600080600083111515611f0557600080fd5b8284811515611f1057fe5b0490508091505092915050565b600080838311151515611f2f57600080fd5b82840390508091505092915050565b6000808284019050838110151515611f5557600080fd5b80915050929150505600a165627a7a723058202f14a7291932f030c38f76c87521fa2521b61c40b4d3c233e5c6a12f1c07a7d30029456c20726571756572696d69656e746f20646520636f62726f206e6f20686120706f6469646f20637265617273652e20456c206964206465206c61206661637475726120657374c3a1206475706c696361646f206f20656c207573756172696f20657374c3a120696e636c75c3ad646f20656e206c6120626c61636b6c6973742ea165627a7a723058205ea2f1a043e9bdb4864e9da112e196e97c75f66fb215aab7fd34d12ec2dfa6b50029",
  "source": "pragma solidity 0.4.24;\n\nimport \"./Ownable.sol\";\nimport \"./Tokens.sol\";\n//import \"./SafeMath.sol\";\nimport \"openzeppelin-solidity/contracts/math/SafeMath.sol\";\n\n// Definicin de Interfaces necesarias para los contratos principales.\ncontract CustTokenInterface{\n    function totalSupply() public constant returns (uint);\n    function balanceOf(address tokenOwner) public constant returns (uint balance);\n    function allowance(address tokenOwner, address spender) public constant returns (uint remaining);\n    function transfer(address to, uint tokens) public returns (bool success);\n    function approve(address spender, uint tokens) public returns (bool success);\n    function transferFrom(address from, address to, uint tokens) public returns (bool success);\n    event Transfer(address indexed from, address indexed to, uint tokens);\n    event Approval(address indexed tokenOwner, address indexed spender, uint tokens);\n}\n\ncontract incentivesInterface_Pays{\n    function addPoints (address _client) public;\n    function resetPoints (address _client) public;\n}\n\ncontract createPaysInterface{\n    function checkMaxPenalized (address _client) public returns (bool);\n    function checkAmount (address _client) public returns (uint);\n}\n\ncontract incentivesInterface{\n    function addPoints (address _client) public;\n    function resetPoints (address _client) public;\n    function enableToDiscount(address _client) public returns(bool);\n}\n\ncontract usuariosInterface{\n    function userActiveState (address _address) public view returns (bool);\n}\n\ncontract merchantInterface{\n    function merchantActiveStatus (address _address) public view returns (bool);\n}\n\n////////////////////////////////////////////////////////////////////////////////////////////////////////////////////////////////////////////////////////////////////////////////////////////////\n//\n//\t\tNombre: CustFactory.sol\n//\t\tAutor: Javier Cabello Laguna\n//\t\tVersion: 0.1\n//\t\tDescripcin:\n//\t\t\tFactory Contract para la creacin de nuevos requerimientos de cobro. Se crear un requerimiento de cobro por cada compra. Estos requerimientos de cobro pueden ser\n//          satisfechos en el momento o aplazados.\t\t\n//\n////////////////////////////////////////////////////////////////////////////////////////////////////////////////////////////////////////////////////////////////////////////////////////////////\n\ncontract CustFactory is Ownable{\n\n    using SafeMath for uint;\n    uint discountGen = 5;\n    uint percentage = 100;\n\n    // Indicador del estado del contrato.\n    bool isStopped = false;\n\n    // Iniciacin de Interfaces\n    usuariosInterface public usuarioActivo;\n    merchantInterface public merchantActivo;\n    createPaysInterface public checkBlackListed;\n    incentivesInterface public incentives;\n\n    //Creacin de eventos para comprobar estado de ejecucin\n    event billCreationStatus (string errMsg, uint id, address client);\n    event blackListed (string Msg, address user, uint amount, address notifier);\n    event eventUser (bool status, address user);\n\n    // Struct donde se almacenar la informacin relativa al usuario en la blacklist\n    struct black{\n        address notifier;\n        uint amount;\n    }\n\n    mapping(uint => address) public idToOwner;\n    mapping (address => bool) public permissions;\n    mapping (address => black) public blacklist;\n\n    //Modificador que comprueba que solo pueda ejecutar la funcin si el contrato no est parado. Incluyo mensaje como buenas prcticas.\n    modifier stoppedInEmergency {\n        require(!isStopped, \"El contrato est parado\");\n        _;\n    }\n\n    modifier permissionAddToBlacklist{\n\trequire (permissions[msg.sender], \"Usted no est habilitado para realizar esta accin\");\n\t_;\n    }\n\n    modifier requireUser(address _client){\n    emit eventUser (usuarioActivo.userActiveState(_client), _client);\n    require (usuarioActivo.userActiveState(_client), \"El usuario no est dado de alta en el sistema\");\n    \t_;\n    }\n\n    modifier requireMerchant {\n\trequire (merchantActivo.merchantActiveStatus(msg.sender), \"El merchant no est dado de alta en el sistema\");\n    \t_;\n    }\n\n    function createPayContract(uint _id, address _client, uint _amount, uint _timeExtra, address _tokenAddress) public stoppedInEmergency requireUser(_client) requireMerchant {\n\tif (idToOwner[_id] == 0 && blacklist[_client].amount == 0 && incentives.enableToDiscount(_client) == true) {\n\t    idToOwner[_id] = new createPays(_client, msg.sender, _id, _amount.sub(_amount.mul(discountGen).div(percentage)), now, now + _timeExtra, _tokenAddress);  // Hay que tener en cuenta que realmente el mapping relaciona el id con el address del contrato que se genera. El Owner del contrato es el msg.sender, siendo este nicamente el proveedor.\n            incentives.resetPoints(_client);\n\t    emit billCreationStatus (\"El requerimiento de cobro se ha creado satisfactoriamente\", _id, _client);\n        } else if (idToOwner[_id] == 0 && blacklist[_client].amount == 0 && incentives.enableToDiscount(_client) == false){\n\t    idToOwner[_id] = new createPays(_client, msg.sender, _id, _amount, now, now + _timeExtra, _tokenAddress);  // Hay que tener en cuenta que realmente el mapping relaciona el id con el address del contrato que se genera. El Owner del contrato es el msg.sender, siendo este nicamente el proveedor.\n            incentives.addPoints(_client);\n            emit billCreationStatus (\"El requerimiento de cobro se ha creado satisfactoriamente\", _id, _client);\n        } \n        else { emit billCreationStatus (\"El requerimiento de cobro no ha podido crearse. El id de la factura est duplicado o el usuario est includo en la blacklist.\", _id, _client);} \n    }\n\n    function permissionAdd(address _address) public requireMerchant{\n        permissions[_address] = true;\n    }\n\n    function addToBlackList(address _client, uint _id) external permissionAddToBlacklist {\n        checkBlackListed = createPaysInterface(idToOwner[_id]);\n        require(checkBlackListed.checkMaxPenalized(_client), \"Todava no ha pasado el tiempo necesario para incluir al cliente en la blacklist\");\n        blacklist[_client].notifier = msg.sender;\n        blacklist[_client].amount = checkBlackListed.checkAmount(_client);\n\tincentives.resetPoints(_client);\n\temit blackListed (\"Usuario aadido a la blacklist\", _client, blacklist[_client].amount, blacklist[_client].notifier);\n    }\n\n    function deleteFromBlackList(address _client, uint _id) external permissionAddToBlacklist {\n        checkBlackListed = createPaysInterface(idToOwner[_id]);\n        require (checkBlackListed.checkAmount(_client) == 0, \"El cliente no ha satisfecho sus deudas, No puede borrarse de la blacklist\");\n        delete blacklist[_client];\n    }\n\n    function setIncentiveContract(address _address) external{\n        incentives = incentivesInterface(_address);\n    }\n\n    function setClientMerchantContracts(address _client, address _merchant) public{\n\tusuarioActivo = usuariosInterface(_client);\n\tmerchantActivo = merchantInterface(_merchant);\n    }\n\n    function changeDiscount(uint _newDiscount) external onlyOwner{\n\tdiscountGen = _newDiscount;\n    }\n\n    //Funcin que para el contrato en caso de emergencia.\n    function stopContract() public onlyOwner {\n        isStopped = true;\n    }\n    \n    //Funcin que arranca el contrato en caso de emergencia.\n    function resumeContract() public onlyOwner {\n        isStopped = false;\n    }\n\n    function bye_bye() external onlyOwner {\n        selfdestruct(msg.sender);\n    }\n}\n\n////////////////////////////////////////////////////////////////////////////////////////////////////////////////////////////////////////////////////////////////////////////////////////////////\n//\n//\t\tNombre: createPays\n//\t\tAutor: Javier Cabello Laguna\n//\t\tVersion: 0.1\n//\t\tDescripcin:\n//\t\t\tFactory Contract para la creacin de nuevos requerimientos de cobro. Se crear un requerimiento de cobro por cada compra. Estos requerimientos de cobro pueden ser\n//          satisfechos en el momento o aplazados.\t\t\n//\n////////////////////////////////////////////////////////////////////////////////////////////////////////////////////////////////////////////////////////////////////////////////////////////////\n\n\ncontract createPays is Ownable{\n\n    using SafeMath for uint;\n    uint16 convRate = 1;\n    uint initialDebt;\n    uint value;\n    uint penalizedValue;\n    bool penalized1 = true;\n    bool penalized2 = true;\n    bool penalized3 = true;\n    bool penalized4 = true;\n    bool penalized5 = true;\n    bool penalized6 = true;\n    // Indicador del estado del contrato.\n    bool isStopped = false;\n\n    CustTokenInterface public custoken;\n    incentivesInterface_Pays public incentives;\n\n    // Definicion de Eventos\n\n    event billRegister (uint billId, uint billAmount, address billRequest);\n    event billStatus (uint amount);\n\n    // Definicion de Estructurass\n\n    struct Bill {\n        uint id;\n        uint amount;\n        address ownerSupply;\n        uint createdBill;\n        uint expiresBill;\n        bool penalized;\n        bool blacklisted;\n    }\n\n    Bill[] public bills;\n\n    mapping (address => Bill) public ownerBill;\n    mapping (address => bool) enableTokens;\n\n    constructor(address _client, address _supplyerAddress, uint _id, uint _amount, uint _created, uint _expires, address _Tokens) public {\n        owner = _supplyerAddress;\n        ownerBill[_client].id = _id;\n        ownerBill[_client].amount = _amount;\n        initialDebt = _amount;\n        ownerBill[_client].ownerSupply = _supplyerAddress;\n        ownerBill[_client].createdBill = _created;\n        ownerBill[_client].expiresBill = _expires;\n        ownerBill[_client].penalized = false;\n        ownerBill[_client].blacklisted = false;\n        emit billRegister(_id, _amount, _client);\n\n\tcustoken = CustTokenInterface(_Tokens);\n        enableTokens[_Tokens] = true;\n    }\n\n    //Modificador que comprueba que solo pueda ejecutar la funcin si el contrato no est parado. Incluyo mensaje como buenas prcticas.\n    modifier stoppedInEmergency {\n        require(!isStopped, \"El contrato est parado\");\n        _;\n    }\n\n    modifier evaluateExpires(address _client){\n        //uint _amountPenalized;\n        if (now >= ownerBill[_client].expiresBill){\n            ownerBill[_client].penalized = true;\n            if (now < ownerBill[_client].expiresBill + 1 minutes){ require (penalized1,\"Usted ya ha efectuado el intento de pago y no ha abonado la cantidad adeudada\"); penalizedValue = initialDebt.mul(1).div(100); penalized1 = false;}\n            else if (now >= ownerBill[_client].expiresBill + 1 minutes){\n                if (now < ownerBill[_client].expiresBill + 5 minutes) { require (penalized2, \"Usted ya ha efectuado el intento de pago y no ha abonado la cantidad adeudada\"); penalizedValue = initialDebt.mul(2).div(100); penalized2 = false;}\n                else if (now >= ownerBill[_client].expiresBill + 5 minutes){\n                    if (now < ownerBill[_client].expiresBill + 7 minutes) { require (penalized3, \"Usted ya ha efectuado el intento de pago y no ha abonado la cantidad adeudada\"); penalizedValue = initialDebt.mul(5).div(100); penalized3 = false;}\n                    else if (now >= ownerBill[_client].expiresBill + 7 minutes){\n                        if (now < ownerBill[_client].expiresBill + 8 minutes) { require (penalized4, \"Usted ya ha efectuado el intento de pago y no ha abonado la cantidad adeudada\"); penalizedValue = initialDebt.mul(12).div(100); penalized4 = false;}\n                        else if (now >= ownerBill[_client].expiresBill + 8 minutes){\n                            if (now < ownerBill[_client].expiresBill + 10 minutes) { require (penalized5, \"Usted ya ha efectuado el intento de pago y no ha abonado la cantidad adeudada\"); penalizedValue = initialDebt.mul(20).div(100); penalized5 = false;}\n                            else if (now >= ownerBill[_client].expiresBill + 10 minutes){\n                                require (penalized6); \n                                ownerBill[_client].blacklisted = true; // Se habilita inscripcin en blacklist\n                            }\n                        }\n                    }\n                }\n            }\n        }\n        else { penalizedValue = 0; }\n        _;\n    }\n\n    modifier paying(address _client, uint _amount) {\n        require(custoken.balanceOf(_client) >= _amount, \"El balance no es suficiente para efectuar el pago\");\n        custoken.transfer(ownerBill[_client].ownerSupply, _amount);\n        ownerBill[_client].amount = ownerBill[_client].amount.sub(_amount);\n        emit billStatus(ownerBill[_client].amount);\n        _;\n    }    \n\n    function payingWithToken(address _client, uint _amount) external payable stoppedInEmergency evaluateExpires (_client) paying (_client, _amount) returns (uint) {\n        ownerBill[_client].amount = ownerBill[_client].amount.add(penalizedValue);\n        penalizedValue = 0;\n        emit billStatus(ownerBill[_client].amount);\n        address(ownerBill[msg.sender].ownerSupply).transfer(msg.value);\n        value = msg.value;\n        ownerBill[_client].amount = ownerBill[_client].amount.sub(value);\n        if (ownerBill[_client].amount == 0) {\n            delete ownerBill[msg.sender];\n\t}\n        emit billStatus(ownerBill[_client].amount);\n        return (ownerBill[_client].amount);\n    }\n\n    //Funcin que para el contrato en caso de emergencia.\n    function stopContract() public onlyOwner {\n        isStopped = true;\n    }\n    \n    //Funcin que arranca el contrato en caso de emergencia.\n    function resumeContract() public onlyOwner {\n        isStopped = false;\n    }\n\n    function supplyerAddress(address _client) public view returns (address){\n        return (ownerBill[_client].ownerSupply);\n    }\n\n    function setJCLTokenContractAddress(address _address) external view {\n        require (enableTokens[_address], \"La direccin que ha introducido no est habilitada para efectuar pagos\");\n        custoken = CustTokenInterface(_address);\n    }\n\n    function checkMaxPenalized (address _client) public view returns (bool){\n        return (ownerBill[_client].blacklisted);\n    }\n\n    function checkAmount (address _client) public view returns (uint){\n        return (ownerBill[_client].amount);\n    }\n    \n    function bye_bye() external onlyOwner {\n        selfdestruct(msg.sender);\n    }\t\t\n\n    function () public payable{\n        revert();\n    }\n\n}\n",
  "sourcePath": "/home/javi/TFM_final/dApp/contracts/CustFactory.sol",
  "compiler": {
    "name": "solc",
    "version": "0.4.24+commit.e67f0147.Emscripten.clang"
  },
  "schemaVersion": "2.0.1",
  "updatedAt": "2019-04-11T08:40:13.305Z"
}