{
  "contractName": "DAO",
  "abi": [
    {
      "constant": true,
      "inputs": [
        {
          "name": "",
          "type": "uint256"
        }
      ],
      "name": "proposals",
      "outputs": [
        {
          "name": "client",
          "type": "address"
        },
        {
          "name": "proposalOwner",
          "type": "address"
        },
        {
          "name": "idBill",
          "type": "uint256"
        },
        {
          "name": "amount",
          "type": "uint256"
        },
        {
          "name": "description",
          "type": "string"
        },
        {
          "name": "minExecutionDate",
          "type": "uint256"
        },
        {
          "name": "executed",
          "type": "bool"
        },
        {
          "name": "proposalPassed",
          "type": "bool"
        },
        {
          "name": "numberOfVotes",
          "type": "uint256"
        },
        {
          "name": "positiveVotes",
          "type": "uint256"
        },
        {
          "name": "negativeVotes",
          "type": "uint256"
        }
      ],
      "payable": false,
      "stateMutability": "view",
      "type": "function"
    },
    {
      "constant": true,
      "inputs": [],
      "name": "toBlackList",
      "outputs": [
        {
          "name": "",
          "type": "address"
        }
      ],
      "payable": false,
      "stateMutability": "view",
      "type": "function"
    },
    {
      "constant": true,
      "inputs": [
        {
          "name": "",
          "type": "uint256"
        }
      ],
      "name": "idToProposal",
      "outputs": [
        {
          "name": "client",
          "type": "address"
        },
        {
          "name": "proposalOwner",
          "type": "address"
        },
        {
          "name": "idBill",
          "type": "uint256"
        },
        {
          "name": "amount",
          "type": "uint256"
        },
        {
          "name": "description",
          "type": "string"
        },
        {
          "name": "minExecutionDate",
          "type": "uint256"
        },
        {
          "name": "executed",
          "type": "bool"
        },
        {
          "name": "proposalPassed",
          "type": "bool"
        },
        {
          "name": "numberOfVotes",
          "type": "uint256"
        },
        {
          "name": "positiveVotes",
          "type": "uint256"
        },
        {
          "name": "negativeVotes",
          "type": "uint256"
        }
      ],
      "payable": false,
      "stateMutability": "view",
      "type": "function"
    },
    {
      "constant": true,
      "inputs": [
        {
          "name": "",
          "type": "address"
        }
      ],
      "name": "memberId",
      "outputs": [
        {
          "name": "",
          "type": "bool"
        }
      ],
      "payable": false,
      "stateMutability": "view",
      "type": "function"
    },
    {
      "constant": true,
      "inputs": [],
      "name": "debatingPeriodInSeconds",
      "outputs": [
        {
          "name": "",
          "type": "uint256"
        }
      ],
      "payable": false,
      "stateMutability": "view",
      "type": "function"
    },
    {
      "constant": true,
      "inputs": [],
      "name": "minimumQuorum",
      "outputs": [
        {
          "name": "",
          "type": "uint256"
        }
      ],
      "payable": false,
      "stateMutability": "view",
      "type": "function"
    },
    {
      "constant": true,
      "inputs": [],
      "name": "owner",
      "outputs": [
        {
          "name": "",
          "type": "address"
        }
      ],
      "payable": false,
      "stateMutability": "view",
      "type": "function"
    },
    {
      "constant": true,
      "inputs": [],
      "name": "check",
      "outputs": [
        {
          "name": "",
          "type": "address"
        }
      ],
      "payable": false,
      "stateMutability": "view",
      "type": "function"
    },
    {
      "constant": true,
      "inputs": [],
      "name": "majorityMargin",
      "outputs": [
        {
          "name": "",
          "type": "int256"
        }
      ],
      "payable": false,
      "stateMutability": "view",
      "type": "function"
    },
    {
      "constant": false,
      "inputs": [
        {
          "name": "newOwner",
          "type": "address"
        }
      ],
      "name": "transferOwnership",
      "outputs": [],
      "payable": false,
      "stateMutability": "nonpayable",
      "type": "function"
    },
    {
      "inputs": [
        {
          "name": "minimumQuorumForProposals",
          "type": "uint256"
        },
        {
          "name": "secondsForDebate",
          "type": "uint256"
        },
        {
          "name": "marginOfVotesForMajority",
          "type": "int256"
        }
      ],
      "payable": true,
      "stateMutability": "payable",
      "type": "constructor"
    },
    {
      "anonymous": false,
      "inputs": [
        {
          "indexed": false,
          "name": "newMinimumQuorum",
          "type": "uint256"
        },
        {
          "indexed": false,
          "name": "newDebatingPeriodInSeconds",
          "type": "uint256"
        },
        {
          "indexed": false,
          "name": "newMajorityMargin",
          "type": "int256"
        }
      ],
      "name": "ChangeOfRules",
      "type": "event"
    },
    {
      "anonymous": false,
      "inputs": [
        {
          "indexed": true,
          "name": "previousOwner",
          "type": "address"
        },
        {
          "indexed": true,
          "name": "newOwner",
          "type": "address"
        }
      ],
      "name": "OwnershipTransferred",
      "type": "event"
    },
    {
      "constant": false,
      "inputs": [
        {
          "name": "_id",
          "type": "uint256"
        },
        {
          "name": "_client",
          "type": "address"
        },
        {
          "name": "_idBill",
          "type": "uint256"
        },
        {
          "name": "_description",
          "type": "string"
        }
      ],
      "name": "newProposal",
      "outputs": [],
      "payable": false,
      "stateMutability": "nonpayable",
      "type": "function"
    },
    {
      "constant": false,
      "inputs": [
        {
          "name": "_id",
          "type": "uint256"
        },
        {
          "name": "_vote",
          "type": "bool"
        },
        {
          "name": "_justification",
          "type": "string"
        }
      ],
      "name": "voting",
      "outputs": [],
      "payable": false,
      "stateMutability": "nonpayable",
      "type": "function"
    },
    {
      "constant": false,
      "inputs": [
        {
          "name": "_member",
          "type": "address"
        }
      ],
      "name": "addMember",
      "outputs": [],
      "payable": false,
      "stateMutability": "nonpayable",
      "type": "function"
    },
    {
      "constant": false,
      "inputs": [
        {
          "name": "_id",
          "type": "uint256"
        }
      ],
      "name": "execution",
      "outputs": [],
      "payable": false,
      "stateMutability": "nonpayable",
      "type": "function"
    },
    {
      "constant": false,
      "inputs": [
        {
          "name": "minimumQuorumForProposals",
          "type": "uint256"
        },
        {
          "name": "secondsForDebate",
          "type": "uint256"
        },
        {
          "name": "marginOfVotesForMajority",
          "type": "int256"
        }
      ],
      "name": "changeVotingRules",
      "outputs": [],
      "payable": false,
      "stateMutability": "nonpayable",
      "type": "function"
    },
    {
      "constant": false,
      "inputs": [
        {
          "name": "_address",
          "type": "address"
        }
      ],
      "name": "setInterfaceToBlacklist",
      "outputs": [],
      "payable": false,
      "stateMutability": "nonpayable",
      "type": "function"
    },
    {
      "constant": false,
      "inputs": [
        {
          "name": "_address",
          "type": "address"
        }
      ],
      "name": "setInterfaceChackAmount",
      "outputs": [],
      "payable": false,
      "stateMutability": "nonpayable",
      "type": "function"
    },
    {
      "constant": false,
      "inputs": [],
      "name": "resumeContract",
      "outputs": [],
      "payable": false,
      "stateMutability": "nonpayable",
      "type": "function"
    },
    {
      "constant": false,
      "inputs": [],
      "name": "stopContract",
      "outputs": [],
      "payable": false,
      "stateMutability": "nonpayable",
      "type": "function"
    }
  ],
  "bytecode": "0x60806040526000600460006101000a81548160ff02191690831515021790555060405160608062001fc0833981018060405281019080805190602001909291908051906020019092919080519060200190929190505050336000806101000a81548173ffffffffffffffffffffffffffffffffffffffff021916908373ffffffffffffffffffffffffffffffffffffffff1602179055506100b08383836100d0640100000000026401000000009004565b6100c833610192640100000000026401000000009004565b505050610248565b6000809054906101000a900473ffffffffffffffffffffffffffffffffffffffff1673ffffffffffffffffffffffffffffffffffffffff163373ffffffffffffffffffffffffffffffffffffffff1614151561012b57600080fd5b8260018190555081600281905550806003819055507fa439d3fa452be5e0e1e24a8145e715f4fd8b9c08c96a42fd82a855a85e5d57de60015460025460035460405180848152602001838152602001828152602001935050505060405180910390a1505050565b6000809054906101000a900473ffffffffffffffffffffffffffffffffffffffff1673ffffffffffffffffffffffffffffffffffffffff163373ffffffffffffffffffffffffffffffffffffffff161415156101ed57600080fd5b6001600760008373ffffffffffffffffffffffffffffffffffffffff1673ffffffffffffffffffffffffffffffffffffffff16815260200190815260200160002060006101000a81548160ff02191690831515021790555050565b611d6880620002586000396000f300608060405260043610610107576000357c0100000000000000000000000000000000000000000000000000000000900463ffffffff168063013cf08b1461010c5780630ed828161461025857806312253a6c146102af578063131a53c4146102c657806335a5d8af14610412578063391068211461045557806348de7f32146104b05780635dccebba146104f3578063600c622f1461052057806369c03cf31461054b57806379644576146105ca5780638160f0b5146106675780638da5cb5b14610692578063919840ad146106e9578063aa02a90f14610740578063bcca1fd31461076b578063c4bc5da5146107ac578063ca6d56dc146107c3578063f2fde38b14610806575b600080fd5b34801561011857600080fd5b5061013760048036038101908080359060200190929190505050610849565b604051808c73ffffffffffffffffffffffffffffffffffffffff1673ffffffffffffffffffffffffffffffffffffffff1681526020018b73ffffffffffffffffffffffffffffffffffffffff1673ffffffffffffffffffffffffffffffffffffffff1681526020018a8152602001898152602001806020018881526020018715151515815260200186151515158152602001858152602001848152602001838152602001828103825289818151815260200191508051906020019080838360005b838110156102135780820151818401526020810190506101f8565b50505050905090810190601f1680156102405780820380516001836020036101000a031916815260200191505b509c5050505050505050505050505060405180910390f35b34801561026457600080fd5b5061026d6109a4565b604051808273ffffffffffffffffffffffffffffffffffffffff1673ffffffffffffffffffffffffffffffffffffffff16815260200191505060405180910390f35b3480156102bb57600080fd5b506102c46109ca565b005b3480156102d257600080fd5b506102f160048036038101908080359060200190929190505050610a42565b604051808c73ffffffffffffffffffffffffffffffffffffffff1673ffffffffffffffffffffffffffffffffffffffff1681526020018b73ffffffffffffffffffffffffffffffffffffffff1673ffffffffffffffffffffffffffffffffffffffff1681526020018a8152602001898152602001806020018881526020018715151515815260200186151515158152602001858152602001848152602001838152602001828103825289818151815260200191508051906020019080838360005b838110156103cd5780820151818401526020810190506103b2565b50505050905090810190601f1680156103fa5780820380516001836020036101000a031916815260200191505b509c5050505050505050505050505060405180910390f35b34801561041e57600080fd5b50610453600480360381019080803573ffffffffffffffffffffffffffffffffffffffff169060200190929190505050610b8e565b005b34801561046157600080fd5b50610496600480360381019080803573ffffffffffffffffffffffffffffffffffffffff169060200190929190505050610c2d565b604051808215151515815260200191505060405180910390f35b3480156104bc57600080fd5b506104f1600480360381019080803573ffffffffffffffffffffffffffffffffffffffff169060200190929190505050610c4d565b005b3480156104ff57600080fd5b5061051e60048036038101908080359060200190929190505050610cec565b005b34801561052c57600080fd5b506105356110de565b6040518082815260200191505060405180910390f35b34801561055757600080fd5b506105c860048036038101908080359060200190929190803515159060200190929190803590602001908201803590602001908080601f01602080910402602001604051908101604052809392919081815260200183838082843782019150505050505091929192905050506110e4565b005b3480156105d657600080fd5b5061066560048036038101908080359060200190929190803573ffffffffffffffffffffffffffffffffffffffff16906020019092919080359060200190929190803590602001908201803590602001908080601f016020809104026020016040519081016040528093929190818152602001838380828437820191505050505050919291929050505061143e565b005b34801561067357600080fd5b5061067c6118da565b6040518082815260200191505060405180910390f35b34801561069e57600080fd5b506106a76118e0565b604051808273ffffffffffffffffffffffffffffffffffffffff1673ffffffffffffffffffffffffffffffffffffffff16815260200191505060405180910390f35b3480156106f557600080fd5b506106fe611905565b604051808273ffffffffffffffffffffffffffffffffffffffff1673ffffffffffffffffffffffffffffffffffffffff16815260200191505060405180910390f35b34801561074c57600080fd5b5061075561192b565b6040518082815260200191505060405180910390f35b34801561077757600080fd5b506107aa600480360381019080803590602001909291908035906020019092919080359060200190929190505050611931565b005b3480156107b857600080fd5b506107c16119f3565b005b3480156107cf57600080fd5b50610804600480360381019080803573ffffffffffffffffffffffffffffffffffffffff169060200190929190505050611a6b565b005b34801561081257600080fd5b50610847600480360381019080803573ffffffffffffffffffffffffffffffffffffffff169060200190929190505050611b21565b005b60068181548110151561085857fe5b90600052602060002090600c02016000915090508060000160009054906101000a900473ffffffffffffffffffffffffffffffffffffffff16908060010160009054906101000a900473ffffffffffffffffffffffffffffffffffffffff1690806002015490806003015490806004018054600181600116156101000203166002900480601f01602080910402602001604051908101604052809291908181526020018280546001816001161561010002031660029004801561095c5780601f106109315761010080835404028352916020019161095c565b820191906000526020600020905b81548152906001019060200180831161093f57829003601f168201915b5050505050908060050154908060060160009054906101000a900460ff16908060060160019054906101000a900460ff1690806007015490806008015490806009015490508b565b600460019054906101000a900473ffffffffffffffffffffffffffffffffffffffff1681565b6000809054906101000a900473ffffffffffffffffffffffffffffffffffffffff1673ffffffffffffffffffffffffffffffffffffffff163373ffffffffffffffffffffffffffffffffffffffff16141515610a2557600080fd5b6001600460006101000a81548160ff021916908315150217905550565b60086020528060005260406000206000915090508060000160009054906101000a900473ffffffffffffffffffffffffffffffffffffffff16908060010160009054906101000a900473ffffffffffffffffffffffffffffffffffffffff1690806002015490806003015490806004018054600181600116156101000203166002900480601f016020809104026020016040519081016040528092919081815260200182805460018160011615610100020316600290048015610b465780601f10610b1b57610100808354040283529160200191610b46565b820191906000526020600020905b815481529060010190602001808311610b2957829003601f168201915b5050505050908060050154908060060160009054906101000a900460ff16908060060160019054906101000a900460ff1690806007015490806008015490806009015490508b565b6000809054906101000a900473ffffffffffffffffffffffffffffffffffffffff1673ffffffffffffffffffffffffffffffffffffffff163373ffffffffffffffffffffffffffffffffffffffff16141515610be957600080fd5b80600560006101000a81548173ffffffffffffffffffffffffffffffffffffffff021916908373ffffffffffffffffffffffffffffffffffffffff16021790555050565b60076020528060005260406000206000915054906101000a900460ff1681565b6000809054906101000a900473ffffffffffffffffffffffffffffffffffffffff1673ffffffffffffffffffffffffffffffffffffffff163373ffffffffffffffffffffffffffffffffffffffff16141515610ca857600080fd5b80600460016101000a81548173ffffffffffffffffffffffffffffffffffffffff021916908373ffffffffffffffffffffffffffffffffffffffff16021790555050565b600460009054906101000a900460ff16151515610d71576040517f08c379a00000000000000000000000000000000000000000000000000000000081526004018080602001828103825260188152602001807f456c20636f6e747261746f20657374c3a12070617261646f000000000000000081525060200191505060405180910390fd5b803373ffffffffffffffffffffffffffffffffffffffff166008600083815260200190815260200160002060010160009054906101000a900473ffffffffffffffffffffffffffffffffffffffff1673ffffffffffffffffffffffffffffffffffffffff16141515610de257600080fd5b600860008381526020019081526020016000206005015442111515610e95576040517f08c379a000000000000000000000000000000000000000000000000000000000815260040180806020018281038252603a8152602001807f4e6f2068612070617361646f20656c207469656d706f2072657175657269646f81526020017f20646520646562617465206465206c612070726f70756573746100000000000081525060400191505060405180910390fd5b600154600860008481526020019081526020016000206007015410158015610ee8575060086000838152602001908152602001600020600901546008600084815260200190815260200160002060080154115b1515610f82576040517f08c379a00000000000000000000000000000000000000000000000000000000081526004018080602001828103825260368152602001807f4e6f20736520656a656375746120616c206e6f20686162657220636f6e73656e81526020017f736f20656e206c61204f7267616e697a616369c3b36e0000000000000000000081525060400191505060405180910390fd5b60016008600084815260200190815260200160002060060160006101000a81548160ff021916908315150217905550600460019054906101000a900473ffffffffffffffffffffffffffffffffffffffff1673ffffffffffffffffffffffffffffffffffffffff1663e00335e66008600085815260200190815260200160002060000160009054906101000a900473ffffffffffffffffffffffffffffffffffffffff1660086000868152602001908152602001600020600201546040518363ffffffff167c0100000000000000000000000000000000000000000000000000000000028152600401808373ffffffffffffffffffffffffffffffffffffffff1673ffffffffffffffffffffffffffffffffffffffff16815260200182815260200192505050600060405180830381600087803b1580156110c257600080fd5b505af11580156110d6573d6000803e3d6000fd5b505050505050565b60025481565b600460009054906101000a900460ff16151515611169576040517f08c379a00000000000000000000000000000000000000000000000000000000081526004018080602001828103825260188152602001807f456c20636f6e747261746f20657374c3a12070617261646f000000000000000081525060200191505060405180910390fd5b60001515600760003373ffffffffffffffffffffffffffffffffffffffff1673ffffffffffffffffffffffffffffffffffffffff16815260200190815260200160002060009054906101000a900460ff161515141515156111c957600080fd5b826000151560086000838152602001908152602001600020600a0160003373ffffffffffffffffffffffffffffffffffffffff1673ffffffffffffffffffffffffffffffffffffffff16815260200190815260200160002060009054906101000a900460ff16151514151561123d57600080fd5b83600015156008600083815260200190815260200160002060060160009054906101000a900460ff16151514151561127457600080fd5b600160086000878152602001908152602001600020600a0160003373ffffffffffffffffffffffffffffffffffffffff1673ffffffffffffffffffffffffffffffffffffffff16815260200190815260200160002060006101000a81548160ff02191690831515021790555060086000868152602001908152602001600020600701600081548092919060010191905055508360086000878152602001908152602001600020600b0160003373ffffffffffffffffffffffffffffffffffffffff1673ffffffffffffffffffffffffffffffffffffffff16815260200190815260200160002060000160006101000a81548160ff0219169083151502179055508260086000878152602001908152602001600020600b0160003373ffffffffffffffffffffffffffffffffffffffff1673ffffffffffffffffffffffffffffffffffffffff16815260200190815260200160002060010190805190602001906113de929190611c97565b508315611410576008600086815260200190815260200160002060080160008154809291906001019190505550611437565b60086000868152602001908152602001600020600901600081548092919060010191905055505b5050505050565b600460009054906101000a900460ff161515156114c3576040517f08c379a00000000000000000000000000000000000000000000000000000000081526004018080602001828103825260188152602001807f456c20636f6e747261746f20657374c3a12070617261646f000000000000000081525060200191505060405180910390fd5b60001515600760003373ffffffffffffffffffffffffffffffffffffffff1673ffffffffffffffffffffffffffffffffffffffff16815260200190815260200160002060009054906101000a900460ff1615151415151561152357600080fd5b60006008600086815260200190815260200160002060000160009054906101000a900473ffffffffffffffffffffffffffffffffffffffff1673ffffffffffffffffffffffffffffffffffffffff1614151561160d576040517f08c379a00000000000000000000000000000000000000000000000000000000081526004018080602001828103825260308152602001807f456c206964206465206c612070726f70756573746120636f72726573706f6e6481526020017f65206120756e6f20616e746572696f720000000000000000000000000000000081525060400191505060405180910390fd5b826008600086815260200190815260200160002060000160006101000a81548173ffffffffffffffffffffffffffffffffffffffff021916908373ffffffffffffffffffffffffffffffffffffffff160217905550816008600086815260200190815260200160002060020181905550336008600086815260200190815260200160002060010160006101000a81548173ffffffffffffffffffffffffffffffffffffffff021916908373ffffffffffffffffffffffffffffffffffffffff160217905550600560009054906101000a900473ffffffffffffffffffffffffffffffffffffffff1673ffffffffffffffffffffffffffffffffffffffff1663ce21f4b1846040518263ffffffff167c0100000000000000000000000000000000000000000000000000000000028152600401808273ffffffffffffffffffffffffffffffffffffffff1673ffffffffffffffffffffffffffffffffffffffff168152602001915050602060405180830381600087803b15801561178f57600080fd5b505af11580156117a3573d6000803e3d6000fd5b505050506040513d60208110156117b957600080fd5b810190808051906020019092919050505060086000868152602001908152602001600020600301819055508060086000868152602001908152602001600020600401908051906020019061180e929190611c97565b50611837603c61182960025442611c7690919063ffffffff16565b611c7690919063ffffffff16565b600860008681526020019081526020016000206005018190555060006008600086815260200190815260200160002060060160006101000a81548160ff02191690831515021790555060006008600086815260200190815260200160002060070181905550600060086000868152602001908152602001600020600801819055506000600860008681526020019081526020016000206009018190555050505050565b60015481565b6000809054906101000a900473ffffffffffffffffffffffffffffffffffffffff1681565b600560009054906101000a900473ffffffffffffffffffffffffffffffffffffffff1681565b60035481565b6000809054906101000a900473ffffffffffffffffffffffffffffffffffffffff1673ffffffffffffffffffffffffffffffffffffffff163373ffffffffffffffffffffffffffffffffffffffff1614151561198c57600080fd5b8260018190555081600281905550806003819055507fa439d3fa452be5e0e1e24a8145e715f4fd8b9c08c96a42fd82a855a85e5d57de60015460025460035460405180848152602001838152602001828152602001935050505060405180910390a1505050565b6000809054906101000a900473ffffffffffffffffffffffffffffffffffffffff1673ffffffffffffffffffffffffffffffffffffffff163373ffffffffffffffffffffffffffffffffffffffff16141515611a4e57600080fd5b6000600460006101000a81548160ff021916908315150217905550565b6000809054906101000a900473ffffffffffffffffffffffffffffffffffffffff1673ffffffffffffffffffffffffffffffffffffffff163373ffffffffffffffffffffffffffffffffffffffff16141515611ac657600080fd5b6001600760008373ffffffffffffffffffffffffffffffffffffffff1673ffffffffffffffffffffffffffffffffffffffff16815260200190815260200160002060006101000a81548160ff02191690831515021790555050565b6000809054906101000a900473ffffffffffffffffffffffffffffffffffffffff1673ffffffffffffffffffffffffffffffffffffffff163373ffffffffffffffffffffffffffffffffffffffff16141515611b7c57600080fd5b600073ffffffffffffffffffffffffffffffffffffffff168173ffffffffffffffffffffffffffffffffffffffff1614151515611bb857600080fd5b8073ffffffffffffffffffffffffffffffffffffffff166000809054906101000a900473ffffffffffffffffffffffffffffffffffffffff1673ffffffffffffffffffffffffffffffffffffffff167f8be0079c531659141344cd1fd0a4f28419497f9722a3daafe3b4186f6b6457e060405160405180910390a3806000806101000a81548173ffffffffffffffffffffffffffffffffffffffff021916908373ffffffffffffffffffffffffffffffffffffffff16021790555050565b6000808284019050838110151515611c8d57600080fd5b8091505092915050565b828054600181600116156101000203166002900490600052602060002090601f016020900481019282601f10611cd857805160ff1916838001178555611d06565b82800160010185558215611d06579182015b82811115611d05578251825591602001919060010190611cea565b5b509050611d139190611d17565b5090565b611d3991905b80821115611d35576000816000905550600101611d1d565b5090565b905600a165627a7a72305820db196dab7ac07aa502012750c0126826259da013787f2645e467b6b2cd5abd560029",
  "source": "pragma solidity >=0.4.22 <0.6.0;\n\nimport './Ownable.sol';\n//import './SafeMath.sol';\nimport \"openzeppelin-solidity/contracts/math/SafeMath.sol\";\n\ncontract interfaceToBlacklist{\n    function addToBlackList(address _client, uint _id) public;\n}\n\ncontract interfaceCheckAmount{\n    function checkAmount (address _client) public view returns (uint);\n}\n\ncontract DAO is Ownable {\n    using SafeMath for uint;\n    uint public minimumQuorum;\n    uint public debatingPeriodInSeconds;\n    int public majorityMargin;\n    bool isStopped = false;\n\n    interfaceToBlacklist public toBlackList;\n    interfaceCheckAmount public check;\n\n    struct Proposal {\n        address client;\n        address proposalOwner;\n        uint idBill;\n\tuint amount;\n        string description;\n        uint minExecutionDate;\n        bool executed;\n        bool proposalPassed;\n        uint numberOfVotes;\n        uint positiveVotes;\n        uint negativeVotes;\n        //Vote[] votes;\n        mapping (address => bool) voted; // Se guarda si un votante ya ha votado\n        mapping (address => Vote) voting; // Se guarda el histórico de votos de cada votante\n    }\n\n    struct Vote {\n        bool vote;\n        string justification;\n    }\n\n    event ChangeOfRules(uint newMinimumQuorum, uint newDebatingPeriodInSeconds, int newMajorityMargin);\n    //struct Result{\n    //\n    //}\n\n    Proposal[] public proposals;\n\n    mapping (address => bool) public memberId;\n    mapping (uint => Proposal) public idToProposal;\n    //mapping (address => Vote) public addressToVoteHistory;\n\n\n\n    constructor (\n        uint minimumQuorumForProposals,\n        uint secondsForDebate,\n        int marginOfVotesForMajority\n    )  payable public {\n        changeVotingRules(minimumQuorumForProposals, secondsForDebate, marginOfVotesForMajority);\n        // It’s necessary to add an empty first member\n        addMember(msg.sender);\n        // and let's add the founder, to save a step later\n        //addMember(owner, 'founder');\n    }\n\n    modifier onlyMembers {\n        require(memberId[msg.sender] != false);\n        _;\n    }\n\n    modifier onlyNoVoters (uint _id) {\n        require (idToProposal[_id].voted[msg.sender] == false);\n        _;\n    }\n\n    modifier onlyNoExecuted (uint _id) {\n        require (idToProposal[_id].executed == false);\n        _;\n    }\n\n    modifier onlyProposalOwner (uint _id) {\n        require (idToProposal[_id].proposalOwner == msg.sender);\n        _;\n    }\n\n    modifier stoppedInEmergency {\n        require(!isStopped, \"El contrato está parado\");\n        _;\n    }\n\n    function newProposal(uint _id, address _client, uint _idBill, string _description) public stoppedInEmergency onlyMembers{\n        require (idToProposal[_id].client==0, \"El id de la propuesta corresponde a uno anterior\");\n        idToProposal[_id].client = _client;\n\tidToProposal[_id].idBill = _idBill;\n        idToProposal[_id].proposalOwner = msg.sender;\n        idToProposal[_id].amount = check.checkAmount(_client);\n        idToProposal[_id].description = _description;\n        idToProposal[_id].minExecutionDate = now.add(debatingPeriodInSeconds).add(1 minutes);\n        idToProposal[_id].executed = false;\n        idToProposal[_id].numberOfVotes = 0;\n        idToProposal[_id].positiveVotes = 0;\n        idToProposal[_id].negativeVotes = 0;\n    }\n\n    function voting(uint _id, bool _vote, string _justification) public stoppedInEmergency onlyMembers onlyNoVoters (_id) onlyNoExecuted (_id){\n        idToProposal[_id].voted[msg.sender] = true;\n        idToProposal[_id].numberOfVotes++;\n        idToProposal[_id].voting[msg.sender].vote = _vote;\n        idToProposal[_id].voting[msg.sender].justification = _justification;\n        if (_vote){\n            idToProposal[_id].positiveVotes++;\n        } else {idToProposal[_id].negativeVotes++;}\n    }\n\n    function addMember(address _member) public onlyOwner {\n        memberId[_member] = true;\n    }\n\n    function execution(uint _id) public stoppedInEmergency onlyProposalOwner (_id){\n        require (now > idToProposal[_id].minExecutionDate, \"No ha pasado el tiempo requerido de debate de la propuesta\");\n        require (idToProposal[_id].numberOfVotes >=  minimumQuorum && idToProposal[_id].positiveVotes > idToProposal[_id].negativeVotes, \"No se ejecuta al no haber consenso en la Organización\");\n        idToProposal[_id].executed = true;\n\ttoBlackList.addToBlackList(idToProposal[_id].client, idToProposal[_id].idBill);\n    }\n\n    function changeVotingRules(\n        uint minimumQuorumForProposals,\n        uint secondsForDebate,\n        int marginOfVotesForMajority\n    ) onlyOwner public {\n        minimumQuorum = minimumQuorumForProposals;\n        debatingPeriodInSeconds = secondsForDebate;\n        majorityMargin = marginOfVotesForMajority;\n\n        emit ChangeOfRules(minimumQuorum, debatingPeriodInSeconds, majorityMargin);\n    }\n\n    function setInterfaceToBlacklist (address _address) public onlyOwner{\n\ttoBlackList = interfaceToBlacklist(_address);\n    }\n\n    function setInterfaceChackAmount (address _address) public onlyOwner{\n\tcheck = interfaceCheckAmount (_address); // Esta es la dirección del contrato de gestión de cobro.\n    }\n\n    function resumeContract() public onlyOwner {\n        isStopped = false;\n    }\n\n    function stopContract() public onlyOwner {\n        isStopped = true;\n    }\n\n}\n\n\n",
  "sourcePath": "/home/javi/TFM_test/contracts/DAO.sol",
  "compiler": {
    "name": "solc",
    "version": "0.4.24+commit.e67f0147.Emscripten.clang"
  },
  "schemaVersion": "2.0.1",
  "updatedAt": "2019-04-01T08:45:43.627Z"
}