{
  "contractName": "Incentives",
  "abi": [
    {
      "constant": true,
      "inputs": [
        {
          "name": "",
          "type": "address"
        }
      ],
      "name": "incentives",
      "outputs": [
        {
          "name": "points",
          "type": "uint256"
        },
        {
          "name": "discount",
          "type": "bool"
        }
      ],
      "payable": false,
      "stateMutability": "view",
      "type": "function"
    },
    {
      "constant": true,
      "inputs": [],
      "name": "owner",
      "outputs": [
        {
          "name": "",
          "type": "address"
        }
      ],
      "payable": false,
      "stateMutability": "view",
      "type": "function"
    },
    {
      "constant": false,
      "inputs": [
        {
          "name": "newOwner",
          "type": "address"
        }
      ],
      "name": "transferOwnership",
      "outputs": [],
      "payable": false,
      "stateMutability": "nonpayable",
      "type": "function"
    },
    {
      "inputs": [],
      "payable": false,
      "stateMutability": "nonpayable",
      "type": "constructor"
    },
    {
      "anonymous": false,
      "inputs": [
        {
          "indexed": false,
          "name": "msg",
          "type": "string"
        },
        {
          "indexed": false,
          "name": "user",
          "type": "address"
        },
        {
          "indexed": false,
          "name": "notifier",
          "type": "address"
        }
      ],
      "name": "pointedUser",
      "type": "event"
    },
    {
      "anonymous": false,
      "inputs": [
        {
          "indexed": true,
          "name": "previousOwner",
          "type": "address"
        },
        {
          "indexed": true,
          "name": "newOwner",
          "type": "address"
        }
      ],
      "name": "OwnershipTransferred",
      "type": "event"
    },
    {
      "constant": false,
      "inputs": [
        {
          "name": "_address",
          "type": "address"
        }
      ],
      "name": "enableUsers",
      "outputs": [],
      "payable": false,
      "stateMutability": "nonpayable",
      "type": "function"
    },
    {
      "constant": false,
      "inputs": [
        {
          "name": "_client",
          "type": "address"
        }
      ],
      "name": "addPoints",
      "outputs": [],
      "payable": false,
      "stateMutability": "nonpayable",
      "type": "function"
    },
    {
      "constant": false,
      "inputs": [
        {
          "name": "_client",
          "type": "address"
        }
      ],
      "name": "resetPoints",
      "outputs": [],
      "payable": false,
      "stateMutability": "nonpayable",
      "type": "function"
    },
    {
      "constant": false,
      "inputs": [
        {
          "name": "_points",
          "type": "uint8"
        }
      ],
      "name": "increasePointsToAdd",
      "outputs": [],
      "payable": false,
      "stateMutability": "nonpayable",
      "type": "function"
    },
    {
      "constant": false,
      "inputs": [
        {
          "name": "_client",
          "type": "address"
        }
      ],
      "name": "enableToDiscount",
      "outputs": [
        {
          "name": "",
          "type": "bool"
        }
      ],
      "payable": false,
      "stateMutability": "nonpayable",
      "type": "function"
    },
    {
      "constant": false,
      "inputs": [],
      "name": "stopContract",
      "outputs": [],
      "payable": false,
      "stateMutability": "nonpayable",
      "type": "function"
    }
  ],
  "bytecode": "0x60806040526000600260006101000a81548160ff02191690831515021790555034801561002b57600080fd5b50336000806101000a81548173ffffffffffffffffffffffffffffffffffffffff021916908373ffffffffffffffffffffffffffffffffffffffff16021790555060018081905550610fa2806100826000396000f300608060405260043610610099576000357c0100000000000000000000000000000000000000000000000000000000900463ffffffff16806312253a6c1461009e57806335b3a2f2146100b5578063774e900b1461011057806383b6f2c5146101725780638da5cb5b146101a2578063ad7b985e146101f9578063c50f782a1461023c578063d25f026d1461027f578063f2fde38b146102c2575b600080fd5b3480156100aa57600080fd5b506100b3610305565b005b3480156100c157600080fd5b506100f6600480360381019080803573ffffffffffffffffffffffffffffffffffffffff16906020019092919050505061037d565b604051808215151515815260200191505060405180910390f35b34801561011c57600080fd5b50610151600480360381019080803573ffffffffffffffffffffffffffffffffffffffff1690602001909291905050506103d6565b60405180838152602001821515151581526020019250505060405180910390f35b34801561017e57600080fd5b506101a0600480360381019080803560ff169060200190929190505050610407565b005b3480156101ae57600080fd5b506101b76104f4565b604051808273ffffffffffffffffffffffffffffffffffffffff1673ffffffffffffffffffffffffffffffffffffffff16815260200191505060405180910390f35b34801561020557600080fd5b5061023a600480360381019080803573ffffffffffffffffffffffffffffffffffffffff169060200190929190505050610519565b005b34801561024857600080fd5b5061027d600480360381019080803573ffffffffffffffffffffffffffffffffffffffff1690602001909291905050506109e3565b005b34801561028b57600080fd5b506102c0600480360381019080803573ffffffffffffffffffffffffffffffffffffffff169060200190929190505050610b1e565b005b3480156102ce57600080fd5b50610303600480360381019080803573ffffffffffffffffffffffffffffffffffffffff169060200190929190505050610e00565b005b6000809054906101000a900473ffffffffffffffffffffffffffffffffffffffff1673ffffffffffffffffffffffffffffffffffffffff163373ffffffffffffffffffffffffffffffffffffffff1614151561036057600080fd5b6001600260006101000a81548160ff021916908315150217905550565b6000600360008373ffffffffffffffffffffffffffffffffffffffff1673ffffffffffffffffffffffffffffffffffffffff16815260200190815260200160002060010160009054906101000a900460ff169050919050565b60036020528060005260406000206000915090508060000154908060010160009054906101000a900460ff16905082565b600260009054906101000a900460ff1615151561048c576040517f08c379a00000000000000000000000000000000000000000000000000000000081526004018080602001828103825260188152602001807f456c20636f6e747261746f20657374c3a12070617261646f000000000000000081525060200191505060405180910390fd5b6000809054906101000a900473ffffffffffffffffffffffffffffffffffffffff1673ffffffffffffffffffffffffffffffffffffffff163373ffffffffffffffffffffffffffffffffffffffff161415156104e757600080fd5b8060ff1660018190555050565b6000809054906101000a900473ffffffffffffffffffffffffffffffffffffffff1681565b600260009054906101000a900460ff1615151561059e576040517f08c379a00000000000000000000000000000000000000000000000000000000081526004018080602001828103825260188152602001807f456c20636f6e747261746f20657374c3a12070617261646f000000000000000081525060200191505060405180910390fd5b600460003373ffffffffffffffffffffffffffffffffffffffff1673ffffffffffffffffffffffffffffffffffffffff16815260200190815260200160002060009054906101000a900460ff161515610685576040517f08c379a00000000000000000000000000000000000000000000000000000000081526004018080602001828103825260378152602001807f5573746564206e6f20657374c3a120686162696c697461646f2070617261207281526020017f65616c697a61722065737461206f706572616369c3b36e00000000000000000081525060400191505060405180910390fd5b600460003373ffffffffffffffffffffffffffffffffffffffff1673ffffffffffffffffffffffffffffffffffffffff16815260200190815260200160002060009054906101000a900460ff16151561076c576040517f08c379a00000000000000000000000000000000000000000000000000000000081526004018080602001828103825260378152602001807f5573746564206e6f20657374c3a120686162696c697461646f2070617261207281526020017f65616c697a61722065737461206f706572616369c3b36e00000000000000000081525060400191505060405180910390fd5b6107c3600154600360008473ffffffffffffffffffffffffffffffffffffffff1673ffffffffffffffffffffffffffffffffffffffff16815260200190815260200160002060000154610f5590919063ffffffff16565b600360008373ffffffffffffffffffffffffffffffffffffffff1673ffffffffffffffffffffffffffffffffffffffff168152602001908152602001600020600001819055507f2b10dfd8445e7cd628e3f8454372dd58d5323a64d9c78263b50438a800012392813360405180806020018473ffffffffffffffffffffffffffffffffffffffff1673ffffffffffffffffffffffffffffffffffffffff1681526020018373ffffffffffffffffffffffffffffffffffffffff1673ffffffffffffffffffffffffffffffffffffffff168152602001828103825260198152602001807f50756e746f2061c3b1616469646f20616c207573756172696f00000000000000815250602001935050505060405180910390a1600a600360008373ffffffffffffffffffffffffffffffffffffffff1673ffffffffffffffffffffffffffffffffffffffff168152602001908152602001600020600001541415610984576001600360008373ffffffffffffffffffffffffffffffffffffffff1673ffffffffffffffffffffffffffffffffffffffff16815260200190815260200160002060010160006101000a81548160ff0219169083151502179055506109e0565b6000600360008373ffffffffffffffffffffffffffffffffffffffff1673ffffffffffffffffffffffffffffffffffffffff16815260200190815260200160002060010160006101000a81548160ff0219169083151502179055505b50565b600260009054906101000a900460ff16151515610a68576040517f08c379a00000000000000000000000000000000000000000000000000000000081526004018080602001828103825260188152602001807f456c20636f6e747261746f20657374c3a12070617261646f000000000000000081525060200191505060405180910390fd5b6000809054906101000a900473ffffffffffffffffffffffffffffffffffffffff1673ffffffffffffffffffffffffffffffffffffffff163373ffffffffffffffffffffffffffffffffffffffff16141515610ac357600080fd5b6001600460008373ffffffffffffffffffffffffffffffffffffffff1673ffffffffffffffffffffffffffffffffffffffff16815260200190815260200160002060006101000a81548160ff02191690831515021790555050565b600260009054906101000a900460ff16151515610ba3576040517f08c379a00000000000000000000000000000000000000000000000000000000081526004018080602001828103825260188152602001807f456c20636f6e747261746f20657374c3a12070617261646f000000000000000081525060200191505060405180910390fd5b600460003373ffffffffffffffffffffffffffffffffffffffff1673ffffffffffffffffffffffffffffffffffffffff16815260200190815260200160002060009054906101000a900460ff161515610c8a576040517f08c379a00000000000000000000000000000000000000000000000000000000081526004018080602001828103825260378152602001807f5573746564206e6f20657374c3a120686162696c697461646f2070617261207281526020017f65616c697a61722065737461206f706572616369c3b36e00000000000000000081525060400191505060405180910390fd5b6000600360008373ffffffffffffffffffffffffffffffffffffffff1673ffffffffffffffffffffffffffffffffffffffff168152602001908152602001600020600001819055506000600360008373ffffffffffffffffffffffffffffffffffffffff1673ffffffffffffffffffffffffffffffffffffffff16815260200190815260200160002060010160006101000a81548160ff0219169083151502179055507f2b10dfd8445e7cd628e3f8454372dd58d5323a64d9c78263b50438a800012392813360405180806020018473ffffffffffffffffffffffffffffffffffffffff1673ffffffffffffffffffffffffffffffffffffffff1681526020018373ffffffffffffffffffffffffffffffffffffffff1673ffffffffffffffffffffffffffffffffffffffff1681526020018281038252601c8152602001807f50756e746f732072657365746561646f7320616c207573756172696f00000000815250602001935050505060405180910390a150565b6000809054906101000a900473ffffffffffffffffffffffffffffffffffffffff1673ffffffffffffffffffffffffffffffffffffffff163373ffffffffffffffffffffffffffffffffffffffff16141515610e5b57600080fd5b600073ffffffffffffffffffffffffffffffffffffffff168173ffffffffffffffffffffffffffffffffffffffff1614151515610e9757600080fd5b8073ffffffffffffffffffffffffffffffffffffffff166000809054906101000a900473ffffffffffffffffffffffffffffffffffffffff1673ffffffffffffffffffffffffffffffffffffffff167f8be0079c531659141344cd1fd0a4f28419497f9722a3daafe3b4186f6b6457e060405160405180910390a3806000806101000a81548173ffffffffffffffffffffffffffffffffffffffff021916908373ffffffffffffffffffffffffffffffffffffffff16021790555050565b6000808284019050838110151515610f6c57600080fd5b80915050929150505600a165627a7a72305820a72081f6d2b1cc0d5793bf3f64444d8df03daa5e0538c285b8d7cdb68bcdfd100029",
  "source": "pragma solidity 0.4.24;\n\nimport './Ownable.sol';\n//import './SafeMath.sol';\nimport \"openzeppelin-solidity/contracts/math/SafeMath.sol\";\n\ncontract Incentives is Ownable{\n    using SafeMath for uint;\n    \n    uint pointsToAdd;\n    bool isStopped = false;\n\n    event pointedUser (string msg, address user, address notifier);\n\n    struct Point{\n        uint points;\n        bool discount;\n    }\n\n    mapping (address => Point) public incentives;\n    mapping (address => bool) private userEnables;\n\n    modifier stoppedInEmergency {\n        require(!isStopped, \"El contrato está parado\");\n        _;\n    }\n\n    modifier userEnable {\n\trequire(userEnables[msg.sender], \"Usted no está habilitado para realizar esta operación\");\n\t_;\n    }\n\n    constructor() public{\n        pointsToAdd = 1;\n    }\n\n    function enableUsers (address _address) public stoppedInEmergency onlyOwner{\n        userEnables[_address] = true;\n    }\n\n    function addPoints (address _client) public stoppedInEmergency userEnable{\n        require(userEnables[msg.sender], \"Usted no está habilitado para realizar esta operación\");\n        incentives[_client].points = incentives[_client].points.add(pointsToAdd);\n\temit pointedUser(\"Punto añadido al usuario\", _client, msg.sender);\n        if (incentives[_client].points == 10){\n            incentives[_client].discount = true;\n        } else { incentives[_client].discount = false; }\n    }\n\n    function resetPoints (address _client) public stoppedInEmergency userEnable{\n\tincentives[_client].points = 0;\n\tincentives[_client].discount = false;\n\temit pointedUser(\"Puntos reseteados al usuario\", _client, msg.sender);\n    }    \n\n    function increasePointsToAdd (uint8 _points) public stoppedInEmergency onlyOwner{\n        pointsToAdd = _points;\n    }\n\n    function enableToDiscount(address _client) public returns(bool){\n\treturn (incentives[_client].discount);\n    }\n\n    //Funcion que para el contrato en caso de emergencia.\n    function stopContract() public onlyOwner {\n        isStopped = true;\n    }\n\n}\n",
  "sourcePath": "/home/javi/TFM_final/dApp/contracts/CustIncentives.sol",
  "compiler": {
    "name": "solc",
    "version": "0.4.24+commit.e67f0147.Emscripten.clang"
  },
  "schemaVersion": "2.0.1",
  "updatedAt": "2019-04-11T08:40:13.261Z"
}