{
  "contractName": "Merchant",
  "abi": [
    {
      "constant": true,
      "inputs": [
        {
          "name": "",
          "type": "uint256"
        }
      ],
      "name": "MerchantAddresses",
      "outputs": [
        {
          "name": "",
          "type": "address"
        }
      ],
      "payable": false,
      "stateMutability": "view",
      "type": "function"
    },
    {
      "constant": true,
      "inputs": [
        {
          "name": "",
          "type": "address"
        }
      ],
      "name": "merchantActive",
      "outputs": [
        {
          "name": "",
          "type": "bool"
        }
      ],
      "payable": false,
      "stateMutability": "view",
      "type": "function"
    },
    {
      "constant": true,
      "inputs": [],
      "name": "owner",
      "outputs": [
        {
          "name": "",
          "type": "address"
        }
      ],
      "payable": false,
      "stateMutability": "view",
      "type": "function"
    },
    {
      "inputs": [],
      "payable": false,
      "stateMutability": "nonpayable",
      "type": "constructor"
    },
    {
      "constant": false,
      "inputs": [
        {
          "name": "_direccion",
          "type": "address"
        }
      ],
      "name": "createMerchant",
      "outputs": [],
      "payable": false,
      "stateMutability": "nonpayable",
      "type": "function"
    },
    {
      "constant": false,
      "inputs": [
        {
          "name": "_direccion",
          "type": "address"
        }
      ],
      "name": "updateInfo",
      "outputs": [],
      "payable": false,
      "stateMutability": "nonpayable",
      "type": "function"
    },
    {
      "constant": false,
      "inputs": [
        {
          "name": "_direccion",
          "type": "address"
        }
      ],
      "name": "removeInfo",
      "outputs": [],
      "payable": false,
      "stateMutability": "nonpayable",
      "type": "function"
    },
    {
      "constant": true,
      "inputs": [
        {
          "name": "_direccion",
          "type": "address"
        }
      ],
      "name": "getInfo",
      "outputs": [
        {
          "name": "",
          "type": "uint256"
        }
      ],
      "payable": false,
      "stateMutability": "view",
      "type": "function"
    },
    {
      "constant": true,
      "inputs": [
        {
          "name": "_address",
          "type": "address"
        }
      ],
      "name": "merchantActiveStatus",
      "outputs": [
        {
          "name": "",
          "type": "bool"
        }
      ],
      "payable": false,
      "stateMutability": "view",
      "type": "function"
    },
    {
      "constant": false,
      "inputs": [],
      "name": "stopContract",
      "outputs": [],
      "payable": false,
      "stateMutability": "nonpayable",
      "type": "function"
    },
    {
      "constant": false,
      "inputs": [],
      "name": "resumeContract",
      "outputs": [],
      "payable": false,
      "stateMutability": "nonpayable",
      "type": "function"
    }
  ],
  "bytecode": "0x608060405260008060146101000a81548160ff02191690831515021790555034801561002a57600080fd5b50336000806101000a81548173ffffffffffffffffffffffffffffffffffffffff021916908373ffffffffffffffffffffffffffffffffffffffff160217905550610e0d8061007a6000396000f3006080604052600436106100a4576000357c0100000000000000000000000000000000000000000000000000000000900463ffffffff16806312253a6c146100a957806341b45b82146100c05780635128f050146101035780636f0debb71461017057806378f892dd146101cb5780638da5cb5b1461020e5780638ea79f2714610265578063b261eee1146102c0578063c4bc5da514610303578063ffdd5cf11461031a575b600080fd5b3480156100b557600080fd5b506100be610371565b005b3480156100cc57600080fd5b50610101600480360381019080803573ffffffffffffffffffffffffffffffffffffffff169060200190929190505050610452565b005b34801561010f57600080fd5b5061012e600480360381019080803590602001909291905050506105e8565b604051808273ffffffffffffffffffffffffffffffffffffffff1673ffffffffffffffffffffffffffffffffffffffff16815260200191505060405180910390f35b34801561017c57600080fd5b506101b1600480360381019080803573ffffffffffffffffffffffffffffffffffffffff169060200190929190505050610626565b604051808215151515815260200191505060405180910390f35b3480156101d757600080fd5b5061020c600480360381019080803573ffffffffffffffffffffffffffffffffffffffff169060200190929190505050610646565b005b34801561021a57600080fd5b506102236109df565b604051808273ffffffffffffffffffffffffffffffffffffffff1673ffffffffffffffffffffffffffffffffffffffff16815260200191505060405180910390f35b34801561027157600080fd5b506102a6600480360381019080803573ffffffffffffffffffffffffffffffffffffffff169060200190929190505050610a04565b604051808215151515815260200191505060405180910390f35b3480156102cc57600080fd5b50610301600480360381019080803573ffffffffffffffffffffffffffffffffffffffff169060200190929190505050610a5a565b005b34801561030f57600080fd5b50610318610cb5565b005b34801561032657600080fd5b5061035b600480360381019080803573ffffffffffffffffffffffffffffffffffffffff169060200190929190505050610d95565b6040518082815260200191505060405180910390f35b6000809054906101000a900473ffffffffffffffffffffffffffffffffffffffff1673ffffffffffffffffffffffffffffffffffffffff163373ffffffffffffffffffffffffffffffffffffffff16141515610435576040517f08c379a00000000000000000000000000000000000000000000000000000000081526004018080602001828103825260148152602001807f53656e646572206e6f206175746f72697a61646f00000000000000000000000081525060200191505060405180910390fd5b6001600060146101000a81548160ff021916908315150217905550565b6000809054906101000a900473ffffffffffffffffffffffffffffffffffffffff1673ffffffffffffffffffffffffffffffffffffffff163373ffffffffffffffffffffffffffffffffffffffff16141515610516576040517f08c379a00000000000000000000000000000000000000000000000000000000081526004018080602001828103825260148152602001807f53656e646572206e6f206175746f72697a61646f00000000000000000000000081525060200191505060405180910390fd5b600060149054906101000a900460ff1615151561059b576040517f08c379a00000000000000000000000000000000000000000000000000000000081526004018080602001828103825260188152602001807f456c20636f6e747261746f20657374c3a12070617261646f000000000000000081525060200191505060405180910390fd5b600160008273ffffffffffffffffffffffffffffffffffffffff1673ffffffffffffffffffffffffffffffffffffffff168152602001908152602001600020600080820160009055505050565b6003818154811015156105f757fe5b906000526020600020016000915054906101000a900473ffffffffffffffffffffffffffffffffffffffff1681565b60026020528060005260406000206000915054906101000a900460ff1681565b6000809054906101000a900473ffffffffffffffffffffffffffffffffffffffff1673ffffffffffffffffffffffffffffffffffffffff163373ffffffffffffffffffffffffffffffffffffffff1614151561070a576040517f08c379a00000000000000000000000000000000000000000000000000000000081526004018080602001828103825260148152602001807f53656e646572206e6f206175746f72697a61646f00000000000000000000000081525060200191505060405180910390fd5b600060149054906101000a900460ff1615151561078f576040517f08c379a00000000000000000000000000000000000000000000000000000000081526004018080602001828103825260188152602001807f456c20636f6e747261746f20657374c3a12070617261646f000000000000000081525060200191505060405180910390fd5b600061079a82610d95565b14151561080f576040517f08c379a00000000000000000000000000000000000000000000000000000000081526004018080602001828103825260158152602001807f4d65726368616e74207961206578697374656e7465000000000000000000000081525060200191505060405180910390fd5b4281604051602001808381526020018273ffffffffffffffffffffffffffffffffffffffff1673ffffffffffffffffffffffffffffffffffffffff166c01000000000000000000000000028152601401925050506040516020818303038152906040526040518082805190602001908083835b6020831015156108a75780518252602082019150602081019050602083039250610882565b6001836020036101000a038019825116818451168082178552505050505050905001915050604051809103902060019004600160008373ffffffffffffffffffffffffffffffffffffffff1673ffffffffffffffffffffffffffffffffffffffff1681526020019081526020016000206000018190555060038190806001815401808255809150509060018203906000526020600020016000909192909190916101000a81548173ffffffffffffffffffffffffffffffffffffffff021916908373ffffffffffffffffffffffffffffffffffffffff160217905550506001600260008373ffffffffffffffffffffffffffffffffffffffff1673ffffffffffffffffffffffffffffffffffffffff16815260200190815260200160002060006101000a81548160ff02191690831515021790555050565b6000809054906101000a900473ffffffffffffffffffffffffffffffffffffffff1681565b6000600260008373ffffffffffffffffffffffffffffffffffffffff1673ffffffffffffffffffffffffffffffffffffffff16815260200190815260200160002060009054906101000a900460ff169050919050565b6000809054906101000a900473ffffffffffffffffffffffffffffffffffffffff1673ffffffffffffffffffffffffffffffffffffffff163373ffffffffffffffffffffffffffffffffffffffff16141515610b1e576040517f08c379a00000000000000000000000000000000000000000000000000000000081526004018080602001828103825260148152602001807f53656e646572206e6f206175746f72697a61646f00000000000000000000000081525060200191505060405180910390fd5b600060149054906101000a900460ff16151515610ba3576040517f08c379a00000000000000000000000000000000000000000000000000000000081526004018080602001828103825260188152602001807f456c20636f6e747261746f20657374c3a12070617261646f000000000000000081525060200191505060405180910390fd5b4281604051602001808381526020018273ffffffffffffffffffffffffffffffffffffffff1673ffffffffffffffffffffffffffffffffffffffff166c01000000000000000000000000028152601401925050506040516020818303038152906040526040518082805190602001908083835b602083101515610c3b5780518252602082019150602081019050602083039250610c16565b6001836020036101000a038019825116818451168082178552505050505050905001915050604051809103902060019004600160008373ffffffffffffffffffffffffffffffffffffffff1673ffffffffffffffffffffffffffffffffffffffff1681526020019081526020016000206000018190555050565b6000809054906101000a900473ffffffffffffffffffffffffffffffffffffffff1673ffffffffffffffffffffffffffffffffffffffff163373ffffffffffffffffffffffffffffffffffffffff16141515610d79576040517f08c379a00000000000000000000000000000000000000000000000000000000081526004018080602001828103825260148152602001807f53656e646572206e6f206175746f72697a61646f00000000000000000000000081525060200191505060405180910390fd5b60008060146101000a81548160ff021916908315150217905550565b6000600160008373ffffffffffffffffffffffffffffffffffffffff1673ffffffffffffffffffffffffffffffffffffffff1681526020019081526020016000206000015490509190505600a165627a7a72305820b5e5b1168d08859ea26fb191df2a3bb6debfb88649e6a6f53c182ccc9bf985e70029",
  "source": "pragma solidity ^0.4.24;\n\n/**\n * @title Gestión de Merchants\n * @dev Con este contrato se dan de alta,baja y modificación a los Merchants en la plataforma.\n */\n\ncontract Merchant {\n\n    // Propietario de contrato.\n    address public owner;\n    \n    // Indicador del estado del contrato.\n    bool isStopped = false;\n\n    // Struct donde se almacena la información del usuario.\n    struct Comercio {\n        uint info;\n    }\n\n    // Mapeo la información con su correspondiente dirección.\n    mapping (address => Comercio) MerchantStructs;\n    mapping (address => bool) public merchantActive;\n\n    // Array de direcciones.\n    address[] public MerchantAddresses;\n    \n    // Función que comprueba que el sender de la acción es el propietario del contrato.\n    modifier onlyOwner () {\n        require(msg.sender == owner, \"Sender no autorizado\");\n        _;\n    }\n\n    //Modificador que comprueba que solo pueda ejecutar la función si el contrato no está parado. Incluyo mensaje como buenas prácticas.\n    modifier stoppedInEmergency {\n        require(!isStopped, \"El contrato está parado\");\n        _;\n    }\n    \n    // Constructor del contrato.\n    constructor() public\n    {\n        owner = msg.sender;\n    }\n    \n    // Función que realiza la creación de un nuevo usuario.\n    function createMerchant(address _direccion) public onlyOwner stoppedInEmergency{\n\n        //Compruebo si el merchant ya existe en la plataforma\n        require(getInfo(_direccion) == 0, \"Merchant ya existente\");\n        \n        // Guardo la información de un usuario.\n        MerchantStructs[_direccion].info = uint(keccak256(abi.encodePacked(now, _direccion)));\n        // Almaceno la dirección del usuario en el array de direcciones.\n        MerchantAddresses.push(_direccion);\n\tmerchantActive[_direccion] = true;    \n    }\n    \n    // Función que realiza la actualización de un usuario.\n    function updateInfo (address _direccion) public onlyOwner stoppedInEmergency{\n        \n        // Actualizo la información almacenada en el struct.\n        MerchantStructs[_direccion].info = uint(keccak256(abi.encodePacked(now, _direccion)));\n    }\n\n    // Función que realiza el borrado de un usuario.\n    function removeInfo (address _direccion) public onlyOwner stoppedInEmergency{\n        delete MerchantStructs[_direccion];\n    }\n    \n    // Función que realiza la consulta de la información de un usuario.\n    function getInfo (address _direccion) public view returns (uint) {\n        return (\n            MerchantStructs[_direccion].info\n            );\n    }\n\n\n    function merchantActiveStatus (address _address) public view returns (bool) {\n    \treturn (merchantActive[_address]);\n    }\n\n    //Función que para el contrato en caso de emergencia.\n    function stopContract() public onlyOwner {\n        isStopped = true;\n    }\n    \n    //Función que arranca el contrato en caso de emergencia.\n    function resumeContract() public onlyOwner {\n        isStopped = false;\n    }\n\n}\n",
  "sourcePath": "/home/javi/TFM_final/dApp/contracts/Merchant.sol",
  "compiler": {
    "name": "solc",
    "version": "0.4.24+commit.e67f0147.Emscripten.clang"
  },
  "schemaVersion": "2.0.1",
  "updatedAt": "2019-04-11T08:40:13.270Z"
}