{
  "contractName": "Tokens",
  "abi": [
    {
      "constant": true,
      "inputs": [],
      "name": "name",
      "outputs": [
        {
          "name": "",
          "type": "string"
        }
      ],
      "payable": false,
      "stateMutability": "view",
      "type": "function"
    },
    {
      "constant": true,
      "inputs": [],
      "name": "owner",
      "outputs": [
        {
          "name": "",
          "type": "address"
        }
      ],
      "payable": false,
      "stateMutability": "view",
      "type": "function"
    },
    {
      "constant": true,
      "inputs": [],
      "name": "symbol",
      "outputs": [
        {
          "name": "",
          "type": "string"
        }
      ],
      "payable": false,
      "stateMutability": "view",
      "type": "function"
    },
    {
      "constant": true,
      "inputs": [],
      "name": "price",
      "outputs": [
        {
          "name": "",
          "type": "uint256"
        }
      ],
      "payable": false,
      "stateMutability": "view",
      "type": "function"
    },
    {
      "constant": false,
      "inputs": [
        {
          "name": "newOwner",
          "type": "address"
        }
      ],
      "name": "transferOwnership",
      "outputs": [],
      "payable": false,
      "stateMutability": "nonpayable",
      "type": "function"
    },
    {
      "inputs": [
        {
          "name": "initialSupply",
          "type": "uint256"
        },
        {
          "name": "tokenName",
          "type": "string"
        },
        {
          "name": "tokenSymbol",
          "type": "string"
        }
      ],
      "payable": false,
      "stateMutability": "nonpayable",
      "type": "constructor"
    },
    {
      "payable": true,
      "stateMutability": "payable",
      "type": "fallback"
    },
    {
      "anonymous": false,
      "inputs": [
        {
          "indexed": true,
          "name": "from",
          "type": "address"
        },
        {
          "indexed": true,
          "name": "to",
          "type": "address"
        },
        {
          "indexed": false,
          "name": "value",
          "type": "uint256"
        }
      ],
      "name": "Transfer",
      "type": "event"
    },
    {
      "anonymous": false,
      "inputs": [
        {
          "indexed": true,
          "name": "from",
          "type": "address"
        },
        {
          "indexed": false,
          "name": "value",
          "type": "uint256"
        }
      ],
      "name": "Burn",
      "type": "event"
    },
    {
      "anonymous": false,
      "inputs": [
        {
          "indexed": true,
          "name": "previousOwner",
          "type": "address"
        },
        {
          "indexed": true,
          "name": "newOwner",
          "type": "address"
        }
      ],
      "name": "OwnershipTransferred",
      "type": "event"
    },
    {
      "constant": false,
      "inputs": [
        {
          "name": "supply",
          "type": "uint256"
        },
        {
          "name": "tokenName",
          "type": "string"
        },
        {
          "name": "tokenSymbol",
          "type": "string"
        }
      ],
      "name": "setToken",
      "outputs": [],
      "payable": false,
      "stateMutability": "nonpayable",
      "type": "function"
    },
    {
      "constant": false,
      "inputs": [
        {
          "name": "_to",
          "type": "address"
        },
        {
          "name": "_value",
          "type": "uint256"
        }
      ],
      "name": "transfer",
      "outputs": [
        {
          "name": "success",
          "type": "bool"
        }
      ],
      "payable": false,
      "stateMutability": "nonpayable",
      "type": "function"
    },
    {
      "constant": false,
      "inputs": [
        {
          "name": "_value",
          "type": "uint256"
        }
      ],
      "name": "burn",
      "outputs": [
        {
          "name": "success",
          "type": "bool"
        }
      ],
      "payable": false,
      "stateMutability": "nonpayable",
      "type": "function"
    },
    {
      "constant": false,
      "inputs": [
        {
          "name": "mintedAmount",
          "type": "uint256"
        }
      ],
      "name": "mint",
      "outputs": [
        {
          "name": "success",
          "type": "bool"
        }
      ],
      "payable": false,
      "stateMutability": "nonpayable",
      "type": "function"
    },
    {
      "constant": false,
      "inputs": [],
      "name": "buy",
      "outputs": [
        {
          "name": "success",
          "type": "bool"
        }
      ],
      "payable": true,
      "stateMutability": "payable",
      "type": "function"
    },
    {
      "constant": false,
      "inputs": [],
      "name": "breaker",
      "outputs": [],
      "payable": false,
      "stateMutability": "nonpayable",
      "type": "function"
    },
    {
      "constant": true,
      "inputs": [],
      "name": "getName",
      "outputs": [
        {
          "name": "",
          "type": "string"
        }
      ],
      "payable": false,
      "stateMutability": "view",
      "type": "function"
    },
    {
      "constant": true,
      "inputs": [],
      "name": "getSymbol",
      "outputs": [
        {
          "name": "",
          "type": "string"
        }
      ],
      "payable": false,
      "stateMutability": "view",
      "type": "function"
    },
    {
      "constant": true,
      "inputs": [],
      "name": "totalSupply",
      "outputs": [
        {
          "name": "",
          "type": "uint256"
        }
      ],
      "payable": false,
      "stateMutability": "view",
      "type": "function"
    },
    {
      "constant": true,
      "inputs": [
        {
          "name": "_owner",
          "type": "address"
        }
      ],
      "name": "balanceOf",
      "outputs": [
        {
          "name": "",
          "type": "uint256"
        }
      ],
      "payable": false,
      "stateMutability": "view",
      "type": "function"
    },
    {
      "constant": true,
      "inputs": [],
      "name": "isOwner",
      "outputs": [
        {
          "name": "",
          "type": "bool"
        }
      ],
      "payable": false,
      "stateMutability": "view",
      "type": "function"
    },
    {
      "constant": true,
      "inputs": [],
      "name": "getBalance",
      "outputs": [
        {
          "name": "",
          "type": "uint256"
        }
      ],
      "payable": false,
      "stateMutability": "view",
      "type": "function"
    },
    {
      "constant": true,
      "inputs": [],
      "name": "getPrice",
      "outputs": [
        {
          "name": "",
          "type": "uint256"
        }
      ],
      "payable": false,
      "stateMutability": "view",
      "type": "function"
    },
    {
      "constant": true,
      "inputs": [],
      "name": "getAddress",
      "outputs": [
        {
          "name": "",
          "type": "address"
        }
      ],
      "payable": false,
      "stateMutability": "view",
      "type": "function"
    },
    {
      "constant": true,
      "inputs": [],
      "name": "isStopped",
      "outputs": [
        {
          "name": "",
          "type": "bool"
        }
      ],
      "payable": false,
      "stateMutability": "view",
      "type": "function"
    },
    {
      "constant": false,
      "inputs": [
        {
          "name": "myid",
          "type": "bytes32"
        },
        {
          "name": "result",
          "type": "string"
        },
        {
          "name": "proof",
          "type": "bytes"
        }
      ],
      "name": "__callback",
      "outputs": [],
      "payable": false,
      "stateMutability": "nonpayable",
      "type": "function"
    },
    {
      "constant": false,
      "inputs": [
        {
          "name": "_myid",
          "type": "bytes32"
        },
        {
          "name": "_result",
          "type": "string"
        }
      ],
      "name": "__callback",
      "outputs": [],
      "payable": false,
      "stateMutability": "nonpayable",
      "type": "function"
    },
    {
      "constant": false,
      "inputs": [],
      "name": "update",
      "outputs": [],
      "payable": true,
      "stateMutability": "payable",
      "type": "function"
    }
  ],
  "bytecode": "0x60806040526000600c60006101000a81548160ff0219169083151502179055503480156200002c57600080fd5b506040516200387f3803806200387f833981018060405281019080805190602001909291908051820192919060200180518201929190505050336000806101000a81548173ffffffffffffffffffffffffffffffffffffffff021916908373ffffffffffffffffffffffffffffffffffffffff160217905550736f485c8bf6fc43ea212e93bbf8ce046c7f1cb475600160006101000a81548173ffffffffffffffffffffffffffffffffffffffff021916908373ffffffffffffffffffffffffffffffffffffffff16021790555033600760006101000a81548173ffffffffffffffffffffffffffffffffffffffff021916908373ffffffffffffffffffffffffffffffffffffffff16021790555082600b81905550600b5460066000600760009054906101000a900473ffffffffffffffffffffffffffffffffffffffff1673ffffffffffffffffffffffffffffffffffffffff1673ffffffffffffffffffffffffffffffffffffffff168152602001908152602001600020819055508160099080519060200190620001c292919062000ed7565b5080600a9080519060200190620001db92919062000ed7565b506064600881905550620001fd62000278640100000000026401000000009004565b600760009054906101000a900473ffffffffffffffffffffffffffffffffffffffff1673ffffffffffffffffffffffffffffffffffffffff1660007fddf252ad1be2c89b69c2b068fc378daa952ba7f163c4a11628f55a4df523b3ef856040518082815260200191505060405180910390a350505062000f86565b6200034a6040805190810160405280600381526020017f55524c0000000000000000000000000000000000000000000000000000000000815250608060405190810160405280604981526020017f6a736f6e2868747470733a2f2f6d696e2d6170692e63727970746f636f6d706181526020017f72652e636f6d2f646174612f70726963653f6673796d3d455448267473796d7381526020017f3d455552292e45555200000000000000000000000000000000000000000000008152506200034d640100000000026401000000009004565b50565b6000806000600160009054906101000a900473ffffffffffffffffffffffffffffffffffffffff1673ffffffffffffffffffffffffffffffffffffffff161480620003d357506000620003d1600160009054906101000a900473ffffffffffffffffffffffffffffffffffffffff166200092f640100000000026401000000009004565b145b15620003f657620003f460006200093a640100000000026401000000009004565b505b600160009054906101000a900473ffffffffffffffffffffffffffffffffffffffff1673ffffffffffffffffffffffffffffffffffffffff166338cc48316040518163ffffffff167c0100000000000000000000000000000000000000000000000000000000028152600401602060405180830381600087803b1580156200047d57600080fd5b505af115801562000492573d6000803e3d6000fd5b505050506040513d6020811015620004a957600080fd5b810190808051906020019092919050505073ffffffffffffffffffffffffffffffffffffffff16600260009054906101000a900473ffffffffffffffffffffffffffffffffffffffff1673ffffffffffffffffffffffffffffffffffffffff161415156200061657600160009054906101000a900473ffffffffffffffffffffffffffffffffffffffff1673ffffffffffffffffffffffffffffffffffffffff166338cc48316040518163ffffffff167c0100000000000000000000000000000000000000000000000000000000028152600401602060405180830381600087803b1580156200059857600080fd5b505af1158015620005ad573d6000803e3d6000fd5b505050506040513d6020811015620005c457600080fd5b8101908080519060200190929190505050600260006101000a81548173ffffffffffffffffffffffffffffffffffffffff021916908373ffffffffffffffffffffffffffffffffffffffff1602179055505b600260009054906101000a900473ffffffffffffffffffffffffffffffffffffffff1673ffffffffffffffffffffffffffffffffffffffff1663524f3889856040518263ffffffff167c01000000000000000000000000000000000000000000000000000000000281526004018080602001828103825283818151815260200191508051906020019080838360005b83811015620006c2578082015181840152602081019050620006a5565b50505050905090810190601f168015620006f05780820380516001836020036101000a031916815260200191505b5092505050602060405180830381600087803b1580156200071057600080fd5b505af115801562000725573d6000803e3d6000fd5b505050506040513d60208110156200073c57600080fd5b8101908080519060200190929190505050905062030d403a02670de0b6b3a76400000181111562000774576000600102915062000928565b600260009054906101000a900473ffffffffffffffffffffffffffffffffffffffff1673ffffffffffffffffffffffffffffffffffffffff1663adf59f9982600087876040518563ffffffff167c0100000000000000000000000000000000000000000000000000000000028152600401808481526020018060200180602001838103835285818151815260200191508051906020019080838360005b838110156200082e57808201518184015260208101905062000811565b50505050905090810190601f1680156200085c5780820380516001836020036101000a031916815260200191505b50838103825284818151815260200191508051906020019080838360005b83811015620008975780820151818401526020810190506200087a565b50505050905090810190601f168015620008c55780820380516001836020036101000a031916815260200191505b50955050505050506020604051808303818588803b158015620008e757600080fd5b505af1158015620008fc573d6000803e3d6000fd5b50505050506040513d60208110156200091457600080fd5b810190808051906020019092919050505091505b5092915050565b6000813b9050919050565b6000620009556200095c640100000000026401000000009004565b9050919050565b6000806200098d731d3b2638a7cc9f2cb3d298a3da7a90b67e5506ed6200092f640100000000026401000000009004565b111562000a4257731d3b2638a7cc9f2cb3d298a3da7a90b67e5506ed600160006101000a81548173ffffffffffffffffffffffffffffffffffffffff021916908373ffffffffffffffffffffffffffffffffffffffff16021790555062000a386040805190810160405280600b81526020017f6574685f6d61696e6e657400000000000000000000000000000000000000000081525062000ebb640100000000026401000000009004565b6001905062000eb8565b600062000a7273c03a2615d5efaf5f49f60b7bb6583eaec212fdf16200092f640100000000026401000000009004565b111562000b275773c03a2615d5efaf5f49f60b7bb6583eaec212fdf1600160006101000a81548173ffffffffffffffffffffffffffffffffffffffff021916908373ffffffffffffffffffffffffffffffffffffffff16021790555062000b1d6040805190810160405280600c81526020017f6574685f726f707374656e33000000000000000000000000000000000000000081525062000ebb640100000000026401000000009004565b6001905062000eb8565b600062000b5773b7a07bcf2ba2f2703b24c0691b5278999c59ac7e6200092f640100000000026401000000009004565b111562000c0c5773b7a07bcf2ba2f2703b24c0691b5278999c59ac7e600160006101000a81548173ffffffffffffffffffffffffffffffffffffffff021916908373ffffffffffffffffffffffffffffffffffffffff16021790555062000c026040805190810160405280600981526020017f6574685f6b6f76616e000000000000000000000000000000000000000000000081525062000ebb640100000000026401000000009004565b6001905062000eb8565b600062000c3c73146500cfd35b22e4a392fe0adc06de1a1368ed486200092f640100000000026401000000009004565b111562000cf15773146500cfd35b22e4a392fe0adc06de1a1368ed48600160006101000a81548173ffffffffffffffffffffffffffffffffffffffff021916908373ffffffffffffffffffffffffffffffffffffffff16021790555062000ce76040805190810160405280600b81526020017f6574685f72696e6b65627900000000000000000000000000000000000000000081525062000ebb640100000000026401000000009004565b6001905062000eb8565b600062000d21736f485c8bf6fc43ea212e93bbf8ce046c7f1cb4756200092f640100000000026401000000009004565b111562000d8757736f485c8bf6fc43ea212e93bbf8ce046c7f1cb475600160006101000a81548173ffffffffffffffffffffffffffffffffffffffff021916908373ffffffffffffffffffffffffffffffffffffffff1602179055506001905062000eb8565b600062000db77320e12a1f859b3feae5fb2a0a32c18f5a65555bbf6200092f640100000000026401000000009004565b111562000e1d577320e12a1f859b3feae5fb2a0a32c18f5a65555bbf600160006101000a81548173ffffffffffffffffffffffffffffffffffffffff021916908373ffffffffffffffffffffffffffffffffffffffff1602179055506001905062000eb8565b600062000e4d7351efaf4c8b3c9afbd5ab9f4bbc82784ab6ef8faa6200092f640100000000026401000000009004565b111562000eb3577351efaf4c8b3c9afbd5ab9f4bbc82784ab6ef8faa600160006101000a81548173ffffffffffffffffffffffffffffffffffffffff021916908373ffffffffffffffffffffffffffffffffffffffff1602179055506001905062000eb8565b600090505b90565b806003908051906020019062000ed392919062000ed7565b5050565b828054600181600116156101000203166002900490600052602060002090601f016020900481019282601f1062000f1a57805160ff191683800117855562000f4b565b8280016001018555821562000f4b579182015b8281111562000f4a57825182559160200191906001019062000f2d565b5b50905062000f5a919062000f5e565b5090565b62000f8391905b8082111562000f7f57600081600090555060010162000f65565b5090565b90565b6128e98062000f966000396000f300608060405260043610610133576000357c0100000000000000000000000000000000000000000000000000000000900463ffffffff16806306fdde03146101525780630f41e0d2146101e257806312065fe0146101f9578063150704011461022457806317d7de7c146102b457806318160ddd1461034457806327dc297e1461036f57806338bbfa50146103e657806338cc4831146104a35780633f683b6a146104fa57806342966c681461052957806354e80a0f1461056e57806370a08231146106275780638da5cb5b1461067e5780638f32d59b146106d557806395d89b411461070457806398d5fdca14610794578063a035b1fe146107bf578063a0712d68146107ea578063a2e620451461082f578063a6f2ae3a14610839578063a9059cbb1461085b578063f2fde38b146108c0575b61015033670de0b6b3a76400003481151561014a57fe5b04610903565b005b34801561015e57600080fd5b50610167610a18565b6040518080602001828103825283818151815260200191508051906020019080838360005b838110156101a757808201518184015260208101905061018c565b50505050905090810190601f1680156101d45780820380516001836020036101000a031916815260200191505b509250505060405180910390f35b3480156101ee57600080fd5b506101f7610ab6565b005b34801561020557600080fd5b5061020e610b3d565b6040518082815260200191505060405180910390f35b34801561023057600080fd5b50610239610b6f565b6040518080602001828103825283818151815260200191508051906020019080838360005b8381101561027957808201518184015260208101905061025e565b50505050905090810190601f1680156102a65780820380516001836020036101000a031916815260200191505b509250505060405180910390f35b3480156102c057600080fd5b506102c9610c11565b6040518080602001828103825283818151815260200191508051906020019080838360005b838110156103095780820151818401526020810190506102ee565b50505050905090810190601f1680156103365780820380516001836020036101000a031916815260200191505b509250505060405180910390f35b34801561035057600080fd5b50610359610cb3565b6040518082815260200191505060405180910390f35b34801561037b57600080fd5b506103e46004803603810190808035600019169060200190929190803590602001908201803590602001908080601f0160208091040260200160405190810160405280939291908181526020018383808284378201915050505050509192919290505050610cbd565b005b3480156103f257600080fd5b506104a16004803603810190808035600019169060200190929190803590602001908201803590602001908080601f0160208091040260200160405190810160405280939291908181526020018383808284378201915050505050509192919290803590602001908201803590602001908080601f0160208091040260200160405190810160405280939291908181526020018383808284378201915050505050509192919290505050610d22565b005b3480156104af57600080fd5b506104b8610d27565b604051808273ffffffffffffffffffffffffffffffffffffffff1673ffffffffffffffffffffffffffffffffffffffff16815260200191505060405180910390f35b34801561050657600080fd5b5061050f610d2f565b604051808215151515815260200191505060405180910390f35b34801561053557600080fd5b5061055460048036038101908080359060200190929190505050610d46565b604051808215151515815260200191505060405180910390f35b34801561057a57600080fd5b5061062560048036038101908080359060200190929190803590602001908201803590602001908080601f0160208091040260200160405190810160405280939291908181526020018383808284378201915050505050509192919290803590602001908201803590602001908080601f0160208091040260200160405190810160405280939291908181526020018383808284378201915050505050509192919290505050610e61565b005b34801561063357600080fd5b50610668600480360381019080803573ffffffffffffffffffffffffffffffffffffffff169060200190929190505050610fe6565b6040518082815260200191505060405180910390f35b34801561068a57600080fd5b5061069361102f565b604051808273ffffffffffffffffffffffffffffffffffffffff1673ffffffffffffffffffffffffffffffffffffffff16815260200191505060405180910390f35b3480156106e157600080fd5b506106ea611054565b604051808215151515815260200191505060405180910390f35b34801561071057600080fd5b506107196110ac565b6040518080602001828103825283818151815260200191508051906020019080838360005b8381101561075957808201518184015260208101905061073e565b50505050905090810190601f1680156107865780820380516001836020036101000a031916815260200191505b509250505060405180910390f35b3480156107a057600080fd5b506107a961114a565b6040518082815260200191505060405180910390f35b3480156107cb57600080fd5b506107d4611154565b6040518082815260200191505060405180910390f35b3480156107f657600080fd5b506108156004803603810190808035906020019092919050505061115a565b604051808215151515815260200191505060405180910390f35b6108376112c8565b005b61084161138c565b604051808215151515815260200191505060405180910390f35b34801561086757600080fd5b506108a6600480360381019080803573ffffffffffffffffffffffffffffffffffffffff169060200190929190803590602001909291905050506113b2565b604051808215151515815260200191505060405180910390f35b3480156108cc57600080fd5b50610901600480360381019080803573ffffffffffffffffffffffffffffffffffffffff1690602001909291905050506113c9565b005b6000600c60009054906101000a900460ff161515610a13576001821015151561092b57600080fd5b6109336112c8565b73__ConvertLib____________________________6396e4ee3d836008546040518363ffffffff167c0100000000000000000000000000000000000000000000000000000000028152600401808381526020018281526020019250505060206040518083038186803b1580156109a857600080fd5b505af41580156109bc573d6000803e3d6000fd5b505050506040513d60208110156109d257600080fd5b81019080805190602001909291905050509050610a12600760009054906101000a900473ffffffffffffffffffffffffffffffffffffffff16848361151e565b5b505050565b60098054600181600116156101000203166002900480601f016020809104026020016040519081016040528092919081815260200182805460018160011615610100020316600290048015610aae5780601f10610a8357610100808354040283529160200191610aae565b820191906000526020600020905b815481529060010190602001808311610a9157829003601f168201915b505050505081565b6000809054906101000a900473ffffffffffffffffffffffffffffffffffffffff1673ffffffffffffffffffffffffffffffffffffffff163373ffffffffffffffffffffffffffffffffffffffff16141515610b1157600080fd5b600c60009054906101000a900460ff1615600c60006101000a81548160ff021916908315150217905550565b6000670de0b6b3a76400003073ffffffffffffffffffffffffffffffffffffffff1631811515610b6957fe5b04905090565b6060600a8054600181600116156101000203166002900480601f016020809104026020016040519081016040528092919081815260200182805460018160011615610100020316600290048015610c075780601f10610bdc57610100808354040283529160200191610c07565b820191906000526020600020905b815481529060010190602001808311610bea57829003601f168201915b5050505050905090565b606060098054600181600116156101000203166002900480601f016020809104026020016040519081016040528092919081815260200182805460018160011615610100020316600290048015610ca95780601f10610c7e57610100808354040283529160200191610ca9565b820191906000526020600020905b815481529060010190602001808311610c8c57829003601f168201915b5050505050905090565b6000600b54905090565b6060610cc761173c565b73ffffffffffffffffffffffffffffffffffffffff163373ffffffffffffffffffffffffffffffffffffffff16141515610d0057600080fd5b819050600081511115610d1d57610d1682611a9e565b6008819055505b505050565b505050565b600033905090565b6000600c60009054906101000a900460ff16905090565b6000600c60009054906101000a900460ff161515610e5c5781600660003373ffffffffffffffffffffffffffffffffffffffff1673ffffffffffffffffffffffffffffffffffffffff1681526020019081526020016000205410151515610dac57600080fd5b81600660003373ffffffffffffffffffffffffffffffffffffffff1673ffffffffffffffffffffffffffffffffffffffff1681526020019081526020016000206000828254039250508190555081600b600082825403925050819055503373ffffffffffffffffffffffffffffffffffffffff167fcc16f5dbb4873280815c1ee09dbd06736cffcc184412cf7a71a0fdb75d397ca5836040518082815260200191505060405180910390a2600190505b919050565b6000809054906101000a900473ffffffffffffffffffffffffffffffffffffffff1673ffffffffffffffffffffffffffffffffffffffff163373ffffffffffffffffffffffffffffffffffffffff16141515610ebc57600080fd5b600c60009054906101000a900460ff161515610fe15760066000600760009054906101000a900473ffffffffffffffffffffffffffffffffffffffff1673ffffffffffffffffffffffffffffffffffffffff1673ffffffffffffffffffffffffffffffffffffffff16815260200190815260200160002054600b54141515610f4357600080fd5b82600b81905550600b5460066000600760009054906101000a900473ffffffffffffffffffffffffffffffffffffffff1673ffffffffffffffffffffffffffffffffffffffff1673ffffffffffffffffffffffffffffffffffffffff168152602001908152602001600020819055508160099080519060200190610fc8929190612818565b5080600a9080519060200190610fdf929190612818565b505b505050565b6000600660008373ffffffffffffffffffffffffffffffffffffffff1673ffffffffffffffffffffffffffffffffffffffff168152602001908152602001600020549050919050565b6000809054906101000a900473ffffffffffffffffffffffffffffffffffffffff1681565b6000600760009054906101000a900473ffffffffffffffffffffffffffffffffffffffff1673ffffffffffffffffffffffffffffffffffffffff163373ffffffffffffffffffffffffffffffffffffffff1614905090565b600a8054600181600116156101000203166002900480601f0160208091040260200160405190810160405280929190818152602001828054600181600116156101000203166002900480156111425780601f1061111757610100808354040283529160200191611142565b820191906000526020600020905b81548152906001019060200180831161112557829003601f168201915b505050505081565b6000600854905090565b60085481565b60008060009054906101000a900473ffffffffffffffffffffffffffffffffffffffff1673ffffffffffffffffffffffffffffffffffffffff163373ffffffffffffffffffffffffffffffffffffffff161415156111b757600080fd5b600c60009054906101000a900460ff1615156112c3578160066000600760009054906101000a900473ffffffffffffffffffffffffffffffffffffffff1673ffffffffffffffffffffffffffffffffffffffff1673ffffffffffffffffffffffffffffffffffffffff1681526020019081526020016000206000828254019250508190555081600b60008282540192505081905550600760009054906101000a900473ffffffffffffffffffffffffffffffffffffffff1673ffffffffffffffffffffffffffffffffffffffff1660007fddf252ad1be2c89b69c2b068fc378daa952ba7f163c4a11628f55a4df523b3ef846040518082815260200191505060405180910390a3600190505b919050565b6113896040805190810160405280600381526020017f55524c0000000000000000000000000000000000000000000000000000000000815250608060405190810160405280604981526020017f6a736f6e2868747470733a2f2f6d696e2d6170692e63727970746f636f6d706181526020017f72652e636f6d2f646174612f70726963653f6673796d3d455448267473796d7381526020017f3d455552292e4555520000000000000000000000000000000000000000000000815250611ab2565b50565b60006113ab33670de0b6b3a7640000348115156113a557fe5b04610903565b6001905090565b60006113bf33848461151e565b6001905092915050565b6000809054906101000a900473ffffffffffffffffffffffffffffffffffffffff1673ffffffffffffffffffffffffffffffffffffffff163373ffffffffffffffffffffffffffffffffffffffff1614151561142457600080fd5b600073ffffffffffffffffffffffffffffffffffffffff168173ffffffffffffffffffffffffffffffffffffffff161415151561146057600080fd5b8073ffffffffffffffffffffffffffffffffffffffff166000809054906101000a900473ffffffffffffffffffffffffffffffffffffffff1673ffffffffffffffffffffffffffffffffffffffff167f8be0079c531659141344cd1fd0a4f28419497f9722a3daafe3b4186f6b6457e060405160405180910390a3806000806101000a81548173ffffffffffffffffffffffffffffffffffffffff021916908373ffffffffffffffffffffffffffffffffffffffff16021790555050565b600c60009054906101000a900460ff1615156117375760008273ffffffffffffffffffffffffffffffffffffffff161415151561155a57600080fd5b80600660008573ffffffffffffffffffffffffffffffffffffffff1673ffffffffffffffffffffffffffffffffffffffff16815260200190815260200160002054101515156115a857600080fd5b600660008373ffffffffffffffffffffffffffffffffffffffff1673ffffffffffffffffffffffffffffffffffffffff1681526020019081526020016000205481600660008573ffffffffffffffffffffffffffffffffffffffff1673ffffffffffffffffffffffffffffffffffffffff16815260200190815260200160002054011015151561163757600080fd5b80600660008573ffffffffffffffffffffffffffffffffffffffff1673ffffffffffffffffffffffffffffffffffffffff1681526020019081526020016000206000828254039250508190555080600660008473ffffffffffffffffffffffffffffffffffffffff1673ffffffffffffffffffffffffffffffffffffffff168152602001908152602001600020600082825401925050819055508173ffffffffffffffffffffffffffffffffffffffff163373ffffffffffffffffffffffffffffffffffffffff167fddf252ad1be2c89b69c2b068fc378daa952ba7f163c4a11628f55a4df523b3ef836040518082815260200191505060405180910390a35b505050565b600080600160009054906101000a900473ffffffffffffffffffffffffffffffffffffffff1673ffffffffffffffffffffffffffffffffffffffff1614806117ae575060006117ac600160009054906101000a900473ffffffffffffffffffffffffffffffffffffffff16612058565b145b156117bf576117bd6000612063565b505b600160009054906101000a900473ffffffffffffffffffffffffffffffffffffffff1673ffffffffffffffffffffffffffffffffffffffff166338cc48316040518163ffffffff167c0100000000000000000000000000000000000000000000000000000000028152600401602060405180830381600087803b15801561184557600080fd5b505af1158015611859573d6000803e3d6000fd5b505050506040513d602081101561186f57600080fd5b810190808051906020019092919050505073ffffffffffffffffffffffffffffffffffffffff16600260009054906101000a900473ffffffffffffffffffffffffffffffffffffffff1673ffffffffffffffffffffffffffffffffffffffff161415156119d857600160009054906101000a900473ffffffffffffffffffffffffffffffffffffffff1673ffffffffffffffffffffffffffffffffffffffff166338cc48316040518163ffffffff167c0100000000000000000000000000000000000000000000000000000000028152600401602060405180830381600087803b15801561195c57600080fd5b505af1158015611970573d6000803e3d6000fd5b505050506040513d602081101561198657600080fd5b8101908080519060200190929190505050600260006101000a81548173ffffffffffffffffffffffffffffffffffffffff021916908373ffffffffffffffffffffffffffffffffffffffff1602179055505b600260009054906101000a900473ffffffffffffffffffffffffffffffffffffffff1673ffffffffffffffffffffffffffffffffffffffff1663c281d19e6040518163ffffffff167c0100000000000000000000000000000000000000000000000000000000028152600401602060405180830381600087803b158015611a5e57600080fd5b505af1158015611a72573d6000803e3d6000fd5b505050506040513d6020811015611a8857600080fd5b8101908080519060200190929190505050905090565b6000611aab826000612074565b9050919050565b6000806000600160009054906101000a900473ffffffffffffffffffffffffffffffffffffffff1673ffffffffffffffffffffffffffffffffffffffff161480611b2657506000611b24600160009054906101000a900473ffffffffffffffffffffffffffffffffffffffff16612058565b145b15611b3757611b356000612063565b505b600160009054906101000a900473ffffffffffffffffffffffffffffffffffffffff1673ffffffffffffffffffffffffffffffffffffffff166338cc48316040518163ffffffff167c0100000000000000000000000000000000000000000000000000000000028152600401602060405180830381600087803b158015611bbd57600080fd5b505af1158015611bd1573d6000803e3d6000fd5b505050506040513d6020811015611be757600080fd5b810190808051906020019092919050505073ffffffffffffffffffffffffffffffffffffffff16600260009054906101000a900473ffffffffffffffffffffffffffffffffffffffff1673ffffffffffffffffffffffffffffffffffffffff16141515611d5057600160009054906101000a900473ffffffffffffffffffffffffffffffffffffffff1673ffffffffffffffffffffffffffffffffffffffff166338cc48316040518163ffffffff167c0100000000000000000000000000000000000000000000000000000000028152600401602060405180830381600087803b158015611cd457600080fd5b505af1158015611ce8573d6000803e3d6000fd5b505050506040513d6020811015611cfe57600080fd5b8101908080519060200190929190505050600260006101000a81548173ffffffffffffffffffffffffffffffffffffffff021916908373ffffffffffffffffffffffffffffffffffffffff1602179055505b600260009054906101000a900473ffffffffffffffffffffffffffffffffffffffff1673ffffffffffffffffffffffffffffffffffffffff1663524f3889856040518263ffffffff167c01000000000000000000000000000000000000000000000000000000000281526004018080602001828103825283818151815260200191508051906020019080838360005b83811015611dfa578082015181840152602081019050611ddf565b50505050905090810190601f168015611e275780820380516001836020036101000a031916815260200191505b5092505050602060405180830381600087803b158015611e4657600080fd5b505af1158015611e5a573d6000803e3d6000fd5b505050506040513d6020811015611e7057600080fd5b8101908080519060200190929190505050905062030d403a02670de0b6b3a764000001811115611ea65760006001029150612051565b600260009054906101000a900473ffffffffffffffffffffffffffffffffffffffff1673ffffffffffffffffffffffffffffffffffffffff1663adf59f9982600087876040518563ffffffff167c0100000000000000000000000000000000000000000000000000000000028152600401808481526020018060200180602001838103835285818151815260200191508051906020019080838360005b83811015611f5e578082015181840152602081019050611f43565b50505050905090810190601f168015611f8b5780820380516001836020036101000a031916815260200191505b50838103825284818151815260200191508051906020019080838360005b83811015611fc4578082015181840152602081019050611fa9565b50505050905090810190601f168015611ff15780820380516001836020036101000a031916815260200191505b50955050505050506020604051808303818588803b15801561201257600080fd5b505af1158015612026573d6000803e3d6000fd5b50505050506040513d602081101561203d57600080fd5b810190808051906020019092919050505091505b5092915050565b6000813b9050919050565b600061206d612368565b9050919050565b6000606060008060008693506000925060009150600090505b83518110156123495760307f01000000000000000000000000000000000000000000000000000000000000000284828151811015156120c857fe5b9060200101517f010000000000000000000000000000000000000000000000000000000000000090047f0100000000000000000000000000000000000000000000000000000000000000027effffffffffffffffffffffffffffffffffffffffffffffffffffffffffffff1916101580156121e0575060397f010000000000000000000000000000000000000000000000000000000000000002848281518110151561217057fe5b9060200101517f010000000000000000000000000000000000000000000000000000000000000090047f0100000000000000000000000000000000000000000000000000000000000000027effffffffffffffffffffffffffffffffffffffffffffffffffffffffffffff191611155b156122915781156122035760008614156121f957612349565b8580600190039650505b600a830292506030848281518110151561221957fe5b9060200101517f010000000000000000000000000000000000000000000000000000000000000090047f0100000000000000000000000000000000000000000000000000000000000000027f01000000000000000000000000000000000000000000000000000000000000009004038301925061233c565b602e7f01000000000000000000000000000000000000000000000000000000000000000284828151811015156122c357fe5b9060200101517f010000000000000000000000000000000000000000000000000000000000000090047f0100000000000000000000000000000000000000000000000000000000000000027effffffffffffffffffffffffffffffffffffffffffffffffffffffffffffff1916141561233b57600191505b5b808060010191505061208d565b600086111561235b5785600a0a830292505b8294505050505092915050565b600080612388731d3b2638a7cc9f2cb3d298a3da7a90b67e5506ed612058565b111561242a57731d3b2638a7cc9f2cb3d298a3da7a90b67e5506ed600160006101000a81548173ffffffffffffffffffffffffffffffffffffffff021916908373ffffffffffffffffffffffffffffffffffffffff1602179055506124216040805190810160405280600b81526020017f6574685f6d61696e6e65740000000000000000000000000000000000000000008152506127fe565b600190506127fb565b600061244973c03a2615d5efaf5f49f60b7bb6583eaec212fdf1612058565b11156124eb5773c03a2615d5efaf5f49f60b7bb6583eaec212fdf1600160006101000a81548173ffffffffffffffffffffffffffffffffffffffff021916908373ffffffffffffffffffffffffffffffffffffffff1602179055506124e26040805190810160405280600c81526020017f6574685f726f707374656e3300000000000000000000000000000000000000008152506127fe565b600190506127fb565b600061250a73b7a07bcf2ba2f2703b24c0691b5278999c59ac7e612058565b11156125ac5773b7a07bcf2ba2f2703b24c0691b5278999c59ac7e600160006101000a81548173ffffffffffffffffffffffffffffffffffffffff021916908373ffffffffffffffffffffffffffffffffffffffff1602179055506125a36040805190810160405280600981526020017f6574685f6b6f76616e00000000000000000000000000000000000000000000008152506127fe565b600190506127fb565b60006125cb73146500cfd35b22e4a392fe0adc06de1a1368ed48612058565b111561266d5773146500cfd35b22e4a392fe0adc06de1a1368ed48600160006101000a81548173ffffffffffffffffffffffffffffffffffffffff021916908373ffffffffffffffffffffffffffffffffffffffff1602179055506126646040805190810160405280600b81526020017f6574685f72696e6b6562790000000000000000000000000000000000000000008152506127fe565b600190506127fb565b600061268c736f485c8bf6fc43ea212e93bbf8ce046c7f1cb475612058565b11156126f057736f485c8bf6fc43ea212e93bbf8ce046c7f1cb475600160006101000a81548173ffffffffffffffffffffffffffffffffffffffff021916908373ffffffffffffffffffffffffffffffffffffffff160217905550600190506127fb565b600061270f7320e12a1f859b3feae5fb2a0a32c18f5a65555bbf612058565b1115612773577320e12a1f859b3feae5fb2a0a32c18f5a65555bbf600160006101000a81548173ffffffffffffffffffffffffffffffffffffffff021916908373ffffffffffffffffffffffffffffffffffffffff160217905550600190506127fb565b60006127927351efaf4c8b3c9afbd5ab9f4bbc82784ab6ef8faa612058565b11156127f6577351efaf4c8b3c9afbd5ab9f4bbc82784ab6ef8faa600160006101000a81548173ffffffffffffffffffffffffffffffffffffffff021916908373ffffffffffffffffffffffffffffffffffffffff160217905550600190506127fb565b600090505b90565b8060039080519060200190612814929190612818565b5050565b828054600181600116156101000203166002900490600052602060002090601f016020900481019282601f1061285957805160ff1916838001178555612887565b82800160010185558215612887579182015b8281111561288657825182559160200191906001019061286b565b5b5090506128949190612898565b5090565b6128ba91905b808211156128b657600081600090555060010161289e565b5090565b905600a165627a7a723058202b6ffc94177c37adbb3248c797e1b29d6eee96a5e77317acb6d3bacae20fde3b0029",
  "source": "pragma solidity ^0.4.16;\n\nimport \"./ConvertLib.sol\";\nimport \"./Ownable.sol\";\nimport \"./usingOraclize.sol\";\n\n/** @title Create and Sell Tokens */\ncontract Tokens is Ownable, usingOraclize {\n    // This create an array with all balances\n    mapping (address => uint256) public balanceOf;\n    \n    // The owner address\n    address private owner;\n\n    // From oracle\n    uint constant conversionDefault = 100;\n    uint public price;\n\n    // Public variables of the token\n    string public name;\n    string public symbol;\n    uint256 public totalSupply;\n\n    // If circuit breaker was enabled\n    bool private stopped = false;\n\n    modifier notStopped {if(!stopped) _;}\n\n     // This generates a public event on the blockchain that will notify clients\n    event Transfer(address indexed from, address indexed to, uint256 value);\n\n    // This notifies clients about the amount burnt\n    event Burn(address indexed from, uint256 value);\n\n\n    /* Initializes contract with initial supply tokens to the creator of the contract */\n    constructor(uint256 initialSupply, string tokenName, string tokenSymbol) public {\n\tOAR = OraclizeAddrResolverI(0x6f485C8BF6fc43eA212E93BBF8ce046C7f1cb475);\n\towner = msg.sender;\n        totalSupply = initialSupply;\n        balanceOf[owner] = totalSupply;\n        name = tokenName;\n        symbol = tokenSymbol;\n        price = conversionDefault;\n        update(); // Set price (ETH/EUR) from Oracle\n        emit Transfer(0x0, owner, initialSupply);\n    }\n\n     /**\n     * @dev Set token\n     * @param supply total supply of tokens\n     * @param tokenName the name of the token\n     * @param tokenSymbol the symbol of the token\n     */\n    function setToken(uint256 supply, string tokenName, string tokenSymbol) public onlyOwner notStopped {\n        // Only it's possible if owner has got the total supply\n        require (totalSupply == balanceOf[owner]);\n        totalSupply = supply;\n        balanceOf[owner] = totalSupply;\n        name = tokenName;\n        symbol = tokenSymbol;\n    }\n\n    function _transfer(address _from, address _to, uint256 _value) internal notStopped {\n        // Prevent transfer to 0x0 address. Use burn() instead\n        require(_to != 0x0);\n        // Check if the sender has enough\n        require(balanceOf[_from] >= _value);\n        // Check for overflows\n        require(balanceOf[_to] + _value >= balanceOf[_to]);\n        // Subtract from the sender\n        balanceOf[_from] -= _value;\n        // Add the same to the recipient\n        balanceOf[_to] += _value;\n        emit Transfer(msg.sender, _to, _value);\n    }\n\n     /**\n     * @dev Send `_value` tokens to `_to` from your account\n     * @param _to The address of the recipient\n     * @param _value the amount to send \n     * @return success If the transaction was fine.\n     */\n    function transfer(address _to, uint256 _value) public returns (bool success) {\n        _transfer(msg.sender, _to, _value);\n        return true;\n    }\n\n    /**\n     * @dev Destroy tokens: Remove `_value` tokens from the system irreversibly\n     * @param _value the amount of tokens to burn\n     * @return success If the transaction was fine.\n     */\n    function burn(uint256 _value) public notStopped returns (bool success) {\n        require(balanceOf[msg.sender] >= _value); // Check if the sender has enough\n        balanceOf[msg.sender] -= _value;           // Subtract from the sender\n        totalSupply -= _value;                     // Updates totalSupply\n        emit Burn(msg.sender, _value);\n        return true;\n    }\n\n    /**\n    * @dev Mint tokens for the owner only\n    * @param mintedAmount the amount of new tokens the owner will receive\n    * @return success If the transaction was fine.\n    */\n    function mint(uint256 mintedAmount) public onlyOwner notStopped returns (bool success) {\n        balanceOf[owner] += mintedAmount;\n        totalSupply += mintedAmount;\n        emit Transfer(0x0, owner, mintedAmount);\n        return true;\n    }\n  \n    function _buy(address buyer, uint _amount) internal notStopped {\n        require(_amount >= 1); // Check if the value of the ether to transfer is at least one\n        update(); // Update price (ETH/EUR) from Oracle to ConversionRate\n        uint amount = ConvertLib.convert(_amount, price);\n        _transfer(owner, buyer, amount);\n    }\n\n    /**\n    * @dev Buy tokens from contract by sending ether\n    * @return success If the transaction was fine.\n    */\n    function buy() public payable returns (bool success) {\n        _buy(msg.sender, msg.value/1000000000000000000);\n        return true;\n    }\n\n    /**\n    * @dev Enable/Disable circuit breaker: Pause/Resume contract funcionality.\n    */\n    function breaker() public onlyOwner {\n        stopped = !stopped;\n    }\n\n    //Getters (public view)\n    function getName() public view returns (string) {\n        return name;\n    }\n\n    function getSymbol() public view returns (string) {\n        return symbol;\n    }\n\n    function totalSupply() public view returns (uint256) {\n        return totalSupply;\n    }\n\n    function balanceOf(address _owner) public view returns (uint256) {\n        return balanceOf[_owner];\n    }\n\n    function isOwner() public view returns (bool) {\n        return (msg.sender == owner);\n    }\n\n    function getBalance() public view returns (uint256) {\n        return address(this).balance/1000000000000000000;\n    }\n\n    function getPrice() public view returns (uint) {\n        return price;\n    }\n\n    function getAddress() public view returns (address) {\n        return msg.sender;\n    }\n\n    function isStopped() public view returns (bool) {\n        return stopped;\n    }\n\n    /**\n    * @dev Fallback function\n    */\n    function () public payable {\n        _buy(msg.sender, msg.value/1000000000000000000);\n    }\n\n    // Callback for update() function (Oraclize)\n    function __callback(bytes32 _myid, string _result) public {\n        require (msg.sender == oraclize_cbAddress());\n        bytes memory tempEmptyStringTest = bytes(_result); // Uses memory\n        if (tempEmptyStringTest.length > 0) //Just updates the price if receives data from Oracle, otherwise keeps the last value\n            price = parseInt(_result);\n    }  \n\n    /** \n    * @dev Oraclize: Update price form min-api.crytocompare.com through Oraclize \n    */\n    function update() public payable {\n        oraclize_query(\"URL\",\"json(https://min-api.cryptocompare.com/data/price?fsym=ETH&tsyms=EUR).EUR\");\n    }\n\n}\n",
  "sourcePath": "/home/javi/TFM_final/dApp/contracts/Tokens.sol",
  "compiler": {
    "name": "solc",
    "version": "0.4.24+commit.e67f0147.Emscripten.clang"
  },
  "schemaVersion": "2.0.1",
  "updatedAt": "2019-04-11T08:40:13.255Z"
}