{
  "contractName": "Usuarios",
  "abi": [
    {
      "constant": true,
      "inputs": [
        {
          "name": "",
          "type": "uint256"
        }
      ],
      "name": "userAddresses",
      "outputs": [
        {
          "name": "",
          "type": "address"
        }
      ],
      "payable": false,
      "stateMutability": "view",
      "type": "function"
    },
    {
      "constant": true,
      "inputs": [],
      "name": "owner",
      "outputs": [
        {
          "name": "",
          "type": "address"
        }
      ],
      "payable": false,
      "stateMutability": "view",
      "type": "function"
    },
    {
      "inputs": [],
      "payable": false,
      "stateMutability": "nonpayable",
      "type": "constructor"
    },
    {
      "constant": false,
      "inputs": [
        {
          "name": "_direccion",
          "type": "address"
        }
      ],
      "name": "createUser",
      "outputs": [],
      "payable": false,
      "stateMutability": "nonpayable",
      "type": "function"
    },
    {
      "constant": false,
      "inputs": [
        {
          "name": "_direccion",
          "type": "address"
        }
      ],
      "name": "updateInfo",
      "outputs": [],
      "payable": false,
      "stateMutability": "nonpayable",
      "type": "function"
    },
    {
      "constant": false,
      "inputs": [
        {
          "name": "_direccion",
          "type": "address"
        }
      ],
      "name": "removeInfo",
      "outputs": [],
      "payable": false,
      "stateMutability": "nonpayable",
      "type": "function"
    },
    {
      "constant": true,
      "inputs": [
        {
          "name": "_direccion",
          "type": "address"
        }
      ],
      "name": "getInfo",
      "outputs": [
        {
          "name": "",
          "type": "uint256"
        }
      ],
      "payable": false,
      "stateMutability": "view",
      "type": "function"
    },
    {
      "constant": true,
      "inputs": [
        {
          "name": "_address",
          "type": "address"
        }
      ],
      "name": "userActiveState",
      "outputs": [
        {
          "name": "",
          "type": "bool"
        }
      ],
      "payable": false,
      "stateMutability": "view",
      "type": "function"
    },
    {
      "constant": false,
      "inputs": [],
      "name": "stopContract",
      "outputs": [],
      "payable": false,
      "stateMutability": "nonpayable",
      "type": "function"
    },
    {
      "constant": false,
      "inputs": [],
      "name": "resumeContract",
      "outputs": [],
      "payable": false,
      "stateMutability": "nonpayable",
      "type": "function"
    }
  ],
  "bytecode": "0x608060405260008060146101000a81548160ff02191690831515021790555034801561002a57600080fd5b50336000806101000a81548173ffffffffffffffffffffffffffffffffffffffff021916908373ffffffffffffffffffffffffffffffffffffffff160217905550610d878061007a6000396000f300608060405260043610610099576000357c0100000000000000000000000000000000000000000000000000000000900463ffffffff16806312253a6c1461009e5780632d3491d5146100b557806341b45b8214610110578063502c9bd5146101535780638da5cb5b146101c0578063b261eee114610217578063c4bc5da51461025a578063cdd8761814610271578063ffdd5cf1146102b4575b600080fd5b3480156100aa57600080fd5b506100b361030b565b005b3480156100c157600080fd5b506100f6600480360381019080803573ffffffffffffffffffffffffffffffffffffffff1690602001909291905050506103ec565b604051808215151515815260200191505060405180910390f35b34801561011c57600080fd5b50610151600480360381019080803573ffffffffffffffffffffffffffffffffffffffff169060200190929190505050610442565b005b34801561015f57600080fd5b5061017e600480360381019080803590602001909291905050506105d8565b604051808273ffffffffffffffffffffffffffffffffffffffff1673ffffffffffffffffffffffffffffffffffffffff16815260200191505060405180910390f35b3480156101cc57600080fd5b506101d5610616565b604051808273ffffffffffffffffffffffffffffffffffffffff1673ffffffffffffffffffffffffffffffffffffffff16815260200191505060405180910390f35b34801561022357600080fd5b50610258600480360381019080803573ffffffffffffffffffffffffffffffffffffffff16906020019092919050505061063b565b005b34801561026657600080fd5b5061026f610896565b005b34801561027d57600080fd5b506102b2600480360381019080803573ffffffffffffffffffffffffffffffffffffffff169060200190929190505050610976565b005b3480156102c057600080fd5b506102f5600480360381019080803573ffffffffffffffffffffffffffffffffffffffff169060200190929190505050610d0f565b6040518082815260200191505060405180910390f35b6000809054906101000a900473ffffffffffffffffffffffffffffffffffffffff1673ffffffffffffffffffffffffffffffffffffffff163373ffffffffffffffffffffffffffffffffffffffff161415156103cf576040517f08c379a00000000000000000000000000000000000000000000000000000000081526004018080602001828103825260148152602001807f53656e646572206e6f206175746f72697a61646f00000000000000000000000081525060200191505060405180910390fd5b6001600060146101000a81548160ff021916908315150217905550565b6000600260008373ffffffffffffffffffffffffffffffffffffffff1673ffffffffffffffffffffffffffffffffffffffff16815260200190815260200160002060009054906101000a900460ff169050919050565b6000809054906101000a900473ffffffffffffffffffffffffffffffffffffffff1673ffffffffffffffffffffffffffffffffffffffff163373ffffffffffffffffffffffffffffffffffffffff16141515610506576040517f08c379a00000000000000000000000000000000000000000000000000000000081526004018080602001828103825260148152602001807f53656e646572206e6f206175746f72697a61646f00000000000000000000000081525060200191505060405180910390fd5b600060149054906101000a900460ff1615151561058b576040517f08c379a00000000000000000000000000000000000000000000000000000000081526004018080602001828103825260188152602001807f456c20636f6e747261746f20657374c3a12070617261646f000000000000000081525060200191505060405180910390fd5b600160008273ffffffffffffffffffffffffffffffffffffffff1673ffffffffffffffffffffffffffffffffffffffff168152602001908152602001600020600080820160009055505050565b6003818154811015156105e757fe5b906000526020600020016000915054906101000a900473ffffffffffffffffffffffffffffffffffffffff1681565b6000809054906101000a900473ffffffffffffffffffffffffffffffffffffffff1681565b6000809054906101000a900473ffffffffffffffffffffffffffffffffffffffff1673ffffffffffffffffffffffffffffffffffffffff163373ffffffffffffffffffffffffffffffffffffffff161415156106ff576040517f08c379a00000000000000000000000000000000000000000000000000000000081526004018080602001828103825260148152602001807f53656e646572206e6f206175746f72697a61646f00000000000000000000000081525060200191505060405180910390fd5b600060149054906101000a900460ff16151515610784576040517f08c379a00000000000000000000000000000000000000000000000000000000081526004018080602001828103825260188152602001807f456c20636f6e747261746f20657374c3a12070617261646f000000000000000081525060200191505060405180910390fd5b4281604051602001808381526020018273ffffffffffffffffffffffffffffffffffffffff1673ffffffffffffffffffffffffffffffffffffffff166c01000000000000000000000000028152601401925050506040516020818303038152906040526040518082805190602001908083835b60208310151561081c57805182526020820191506020810190506020830392506107f7565b6001836020036101000a038019825116818451168082178552505050505050905001915050604051809103902060019004600160008373ffffffffffffffffffffffffffffffffffffffff1673ffffffffffffffffffffffffffffffffffffffff1681526020019081526020016000206000018190555050565b6000809054906101000a900473ffffffffffffffffffffffffffffffffffffffff1673ffffffffffffffffffffffffffffffffffffffff163373ffffffffffffffffffffffffffffffffffffffff1614151561095a576040517f08c379a00000000000000000000000000000000000000000000000000000000081526004018080602001828103825260148152602001807f53656e646572206e6f206175746f72697a61646f00000000000000000000000081525060200191505060405180910390fd5b60008060146101000a81548160ff021916908315150217905550565b6000809054906101000a900473ffffffffffffffffffffffffffffffffffffffff1673ffffffffffffffffffffffffffffffffffffffff163373ffffffffffffffffffffffffffffffffffffffff16141515610a3a576040517f08c379a00000000000000000000000000000000000000000000000000000000081526004018080602001828103825260148152602001807f53656e646572206e6f206175746f72697a61646f00000000000000000000000081525060200191505060405180910390fd5b600060149054906101000a900460ff16151515610abf576040517f08c379a00000000000000000000000000000000000000000000000000000000081526004018080602001828103825260188152602001807f456c20636f6e747261746f20657374c3a12070617261646f000000000000000081525060200191505060405180910390fd5b6000610aca82610d0f565b141515610b3f576040517f08c379a00000000000000000000000000000000000000000000000000000000081526004018080602001828103825260148152602001807f5573756172696f207961206578697374656e746500000000000000000000000081525060200191505060405180910390fd5b4281604051602001808381526020018273ffffffffffffffffffffffffffffffffffffffff1673ffffffffffffffffffffffffffffffffffffffff166c01000000000000000000000000028152601401925050506040516020818303038152906040526040518082805190602001908083835b602083101515610bd75780518252602082019150602081019050602083039250610bb2565b6001836020036101000a038019825116818451168082178552505050505050905001915050604051809103902060019004600160008373ffffffffffffffffffffffffffffffffffffffff1673ffffffffffffffffffffffffffffffffffffffff1681526020019081526020016000206000018190555060038190806001815401808255809150509060018203906000526020600020016000909192909190916101000a81548173ffffffffffffffffffffffffffffffffffffffff021916908373ffffffffffffffffffffffffffffffffffffffff160217905550506001600260008373ffffffffffffffffffffffffffffffffffffffff1673ffffffffffffffffffffffffffffffffffffffff16815260200190815260200160002060006101000a81548160ff02191690831515021790555050565b6000600160008373ffffffffffffffffffffffffffffffffffffffff1673ffffffffffffffffffffffffffffffffffffffff1681526020019081526020016000206000015490509190505600a165627a7a72305820575be0574a6df2f0d4ede73de9452069620e3cfe00792c3ba3166ae237ffada10029",
  "source": "pragma solidity ^0.4.24;\n\n/**\n * @title Gestión de usuarios\n * @dev Con este contrato se dan de alta,baja y modificación a los usuarios en la plataforma.\n */\n\ncontract Usuarios {\n\n    // Propietario de contrato.\n    address public owner;\n    \n    // Indicador del estado del contrato.\n    bool isStopped = false;\n\n    // Struct donde se almacena la información del usuario.\n    struct User {\n        uint info;\n    }\n\n    // Mapeo la información con su correspondiente dirección.\n    mapping (address => User) userStructs;\n    mapping (address => bool) userActive;    \n\n    // Array de direcciones.\n    address[] public userAddresses;\n    \n    // Función que comprueba que el sender de la acción es el propietario del contrato.\n    modifier onlyOwner () {\n        require(msg.sender == owner, \"Sender no autorizado\");\n        _;\n    }\n\n    //Modificador que comprueba que solo pueda ejecutar la función si el contrato no está parado. Incluyo mensaje como buenas prácticas.\n    modifier stoppedInEmergency {\n        require(!isStopped, \"El contrato está parado\");\n        _;\n    }\n    \n    // Constructor del contrato.\n    constructor() public\n    {\n        owner = msg.sender;\n    }\n    \n    // Función que realiza la creación de un nuevo usuario.\n    function createUser(address _direccion) public onlyOwner stoppedInEmergency{\n        \n        //Compruebo si el usuario ya existe en la plataforma\n        require(getInfo(_direccion) == 0, \"Usuario ya existente\");\n        \n        // Guardo la información de un usuario.\n        userStructs[_direccion].info = uint(keccak256(abi.encodePacked(now, _direccion)));\n        // Almaceno la dirección del usuario en el array de direcciones.\n        userAddresses.push(_direccion);\n\tuserActive[_direccion] = true;\n    \n    }\n    \n    // Función que realiza la actualización de un usuario.\n    function updateInfo (address _direccion) public onlyOwner stoppedInEmergency{\n        \n        // Actualizo la información almacenada en el struct.\n        userStructs[_direccion].info = uint(keccak256(abi.encodePacked(now, _direccion)));\n    }\n\n    // Función que realiza el borrado de un usuario.\n    function removeInfo (address _direccion) public onlyOwner stoppedInEmergency{\n        delete userStructs[_direccion];\n    }\n    \n    // Función que realiza la consulta de la información de un usuario.\n    function getInfo (address _direccion) public view returns (uint) {\n        return (\n            userStructs[_direccion].info\n            );\n    }\n\n    // Función para comprobar si el usuario está dado de alta en la aplicación.\n    function userActiveState (address _address) public view returns (bool) {\n    \treturn(userActive[_address]);\n    }\n\n    //Función que para el contrato en caso de emergencia.\n    function stopContract() public onlyOwner {\n        isStopped = true;\n    }\n    \n    //Función que arranca el contrato en caso de emergencia.\n    function resumeContract() public onlyOwner {\n        isStopped = false;\n    }\n\n}\n",
  "sourcePath": "/home/javi/TFM_final/dApp/contracts/Usuarios.sol",
  "compiler": {
    "name": "solc",
    "version": "0.4.24+commit.e67f0147.Emscripten.clang"
  },
  "schemaVersion": "2.0.1",
  "updatedAt": "2019-04-11T08:40:13.266Z"
}